{
  "contractName": "AuctionHouse",
  "abi": [
    {
      "anonymous": false,
      "inputs": [
        {
          "indexed": false,
          "internalType": "address",
          "name": "account",
          "type": "address"
        }
      ],
      "name": "AccountApproved",
      "type": "event"
    },
    {
      "anonymous": false,
      "inputs": [
        {
          "indexed": false,
          "internalType": "address",
          "name": "account",
          "type": "address"
        }
      ],
      "name": "AccountRemoved",
      "type": "event"
    },
    {
      "anonymous": false,
      "inputs": [
        {
          "indexed": false,
          "internalType": "uint256",
          "name": "auctionId",
          "type": "uint256"
        },
        {
          "indexed": false,
          "internalType": "address",
          "name": "owner",
          "type": "address"
        },
        {
          "indexed": false,
          "internalType": "address",
          "name": "contractAddress",
          "type": "address"
        },
        {
          "indexed": false,
          "internalType": "uint256",
          "name": "tokenId",
          "type": "uint256"
        },
        {
          "indexed": false,
          "internalType": "uint256",
          "name": "reservePrice",
          "type": "uint256"
        }
      ],
      "name": "AuctionAdded",
      "type": "event"
    },
    {
      "anonymous": false,
      "inputs": [
        {
          "indexed": false,
          "internalType": "uint256",
          "name": "auctionId",
          "type": "uint256"
        },
        {
          "indexed": false,
          "internalType": "address",
          "name": "bidder",
          "type": "address"
        },
        {
          "indexed": false,
          "internalType": "uint256",
          "name": "value",
          "type": "uint256"
        },
        {
          "indexed": false,
          "internalType": "bool",
          "name": "extended",
          "type": "bool"
        }
      ],
      "name": "AuctionBid",
      "type": "event"
    },
    {
      "anonymous": false,
      "inputs": [
        {
          "indexed": false,
          "internalType": "uint256",
          "name": "auctionId",
          "type": "uint256"
        }
      ],
      "name": "AuctionCancelled",
      "type": "event"
    },
    {
      "anonymous": false,
      "inputs": [
        {
          "indexed": false,
          "internalType": "uint256",
          "name": "auctionId",
          "type": "uint256"
        },
        {
          "indexed": false,
          "internalType": "uint256",
          "name": "endTime",
          "type": "uint256"
        }
      ],
      "name": "AuctionExtended",
      "type": "event"
    },
    {
      "anonymous": false,
      "inputs": [
        {
          "indexed": false,
          "internalType": "uint256",
          "name": "_minBidIncrementPercentage",
          "type": "uint256"
        }
      ],
      "name": "AuctionMinBidIncrementPercentageUpdated",
      "type": "event"
    },
    {
      "anonymous": false,
      "inputs": [
        {
          "indexed": false,
          "internalType": "uint256",
          "name": "auctionId",
          "type": "uint256"
        },
        {
          "indexed": false,
          "internalType": "address",
          "name": "bidder",
          "type": "address"
        },
        {
          "indexed": false,
          "internalType": "uint256",
          "name": "value",
          "type": "uint256"
        }
      ],
      "name": "AuctionSettled",
      "type": "event"
    },
    {
      "anonymous": false,
      "inputs": [
        {
          "indexed": false,
          "internalType": "uint256",
          "name": "auctionId",
          "type": "uint256"
        },
        {
          "indexed": false,
          "internalType": "uint256",
          "name": "startTime",
          "type": "uint256"
        },
        {
          "indexed": false,
          "internalType": "uint256",
          "name": "endTime",
          "type": "uint256"
        }
      ],
      "name": "AuctionStarted",
      "type": "event"
    },
    {
      "anonymous": false,
      "inputs": [
        {
          "indexed": false,
          "internalType": "uint256",
          "name": "_timeBuffer",
          "type": "uint256"
        }
      ],
      "name": "AuctionTimeBufferUpdated",
      "type": "event"
    },
    {
      "anonymous": false,
      "inputs": [
        {
          "indexed": true,
          "internalType": "address",
          "name": "previousOwner",
          "type": "address"
        },
        {
          "indexed": true,
          "internalType": "address",
          "name": "newOwner",
          "type": "address"
        }
      ],
      "name": "OwnershipTransferred",
      "type": "event"
    },
    {
      "inputs": [
        {
          "internalType": "uint256",
          "name": "",
          "type": "uint256"
        }
      ],
      "name": "auctions",
      "outputs": [
        {
          "internalType": "address",
          "name": "owner",
          "type": "address"
        },
        {
          "internalType": "address",
          "name": "contractAddress",
          "type": "address"
        },
        {
          "internalType": "uint256",
          "name": "tokenId",
          "type": "uint256"
        },
        {
          "internalType": "uint256",
          "name": "startTime",
          "type": "uint256"
        },
        {
          "internalType": "uint256",
          "name": "endTime",
          "type": "uint256"
        },
        {
          "internalType": "bool",
          "name": "settled",
          "type": "bool"
        },
        {
          "internalType": "address",
          "name": "currentBidder",
          "type": "address"
        },
        {
          "internalType": "uint256",
          "name": "currentBid",
          "type": "uint256"
        },
        {
          "internalType": "uint256",
          "name": "reservePrice",
          "type": "uint256"
        },
        {
          "internalType": "bool",
          "name": "cancelled",
          "type": "bool"
        }
      ],
      "stateMutability": "view",
      "type": "function",
      "constant": true
    },
    {
      "inputs": [],
      "name": "currentAuctionId",
      "outputs": [
        {
          "internalType": "uint256",
          "name": "",
          "type": "uint256"
        }
      ],
      "stateMutability": "view",
      "type": "function",
      "constant": true
    },
    {
      "inputs": [],
      "name": "duration",
      "outputs": [
        {
          "internalType": "uint256",
          "name": "",
          "type": "uint256"
        }
      ],
      "stateMutability": "view",
      "type": "function",
      "constant": true
    },
    {
      "inputs": [],
      "name": "minBidIncrementPercentage",
      "outputs": [
        {
          "internalType": "uint8",
          "name": "",
          "type": "uint8"
        }
      ],
      "stateMutability": "view",
      "type": "function",
      "constant": true
    },
    {
      "inputs": [],
      "name": "nextAuction",
      "outputs": [
        {
          "internalType": "uint256",
          "name": "",
          "type": "uint256"
        }
      ],
      "stateMutability": "view",
      "type": "function",
      "constant": true
    },
    {
      "inputs": [],
      "name": "owner",
      "outputs": [
        {
          "internalType": "address",
          "name": "",
          "type": "address"
        }
      ],
      "stateMutability": "view",
      "type": "function",
      "constant": true
    },
    {
      "inputs": [],
      "name": "renounceOwnership",
      "outputs": [],
      "stateMutability": "nonpayable",
      "type": "function"
    },
    {
      "inputs": [],
      "name": "timeBuffer",
      "outputs": [
        {
          "internalType": "uint256",
          "name": "",
          "type": "uint256"
        }
      ],
      "stateMutability": "view",
      "type": "function",
      "constant": true
    },
    {
      "inputs": [
        {
          "internalType": "address",
          "name": "newOwner",
          "type": "address"
        }
      ],
      "name": "transferOwnership",
      "outputs": [],
      "stateMutability": "nonpayable",
      "type": "function"
    },
    {
      "inputs": [
        {
          "internalType": "address",
          "name": "account",
          "type": "address"
        }
      ],
      "name": "addApprovedAccount",
      "outputs": [],
      "stateMutability": "nonpayable",
      "type": "function"
    },
    {
      "inputs": [
        {
          "internalType": "address",
          "name": "account",
          "type": "address"
        }
      ],
      "name": "removeApprovedAccount",
      "outputs": [],
      "stateMutability": "nonpayable",
      "type": "function"
    },
    {
      "inputs": [
        {
          "internalType": "address",
          "name": "account",
          "type": "address"
        }
      ],
      "name": "isApprovedAccount",
      "outputs": [
        {
          "internalType": "bool",
          "name": "",
          "type": "bool"
        }
      ],
      "stateMutability": "view",
      "type": "function",
      "constant": true
    },
    {
      "inputs": [
        {
          "internalType": "uint256",
          "name": "_duration",
          "type": "uint256"
        }
      ],
      "name": "setDuration",
      "outputs": [],
      "stateMutability": "nonpayable",
      "type": "function"
    },
    {
      "inputs": [
        {
          "internalType": "uint8",
          "name": "_minBidIncrementPercentage",
          "type": "uint8"
        }
      ],
      "name": "setMinBidIncrementPercentage",
      "outputs": [],
      "stateMutability": "nonpayable",
      "type": "function"
    },
    {
      "inputs": [
        {
          "internalType": "uint256",
          "name": "_timeBuffer",
          "type": "uint256"
        }
      ],
      "name": "setTimeBuffer",
      "outputs": [],
      "stateMutability": "nonpayable",
      "type": "function"
    },
    {
      "inputs": [
        {
          "internalType": "address",
          "name": "contractAddress",
          "type": "address"
        },
        {
          "internalType": "uint256",
          "name": "tokenId",
          "type": "uint256"
        },
        {
          "internalType": "uint256",
          "name": "reservePrice",
          "type": "uint256"
        }
      ],
      "name": "addNFT",
      "outputs": [],
      "stateMutability": "nonpayable",
      "type": "function"
    },
    {
      "inputs": [
        {
          "internalType": "uint256",
          "name": "auctionId",
          "type": "uint256"
        }
      ],
      "name": "createBid",
      "outputs": [],
      "stateMutability": "payable",
      "type": "function",
      "payable": true
    },
    {
      "inputs": [],
      "name": "settleAuction",
      "outputs": [],
      "stateMutability": "nonpayable",
      "type": "function"
    },
    {
      "inputs": [
        {
          "internalType": "uint256",
          "name": "_auctionId",
          "type": "uint256"
        }
      ],
      "name": "cancelAuction",
      "outputs": [],
      "stateMutability": "nonpayable",
      "type": "function"
    }
  ],
  "bytecode": "0x60806040526380ac58cd60e01b600060146101000a81548163ffffffff021916908360e01c02179055503480156200003657600080fd5b50620000576200004b6200005d60201b60201c565b6200006560201b60201c565b62000129565b600033905090565b60008060009054906101000a900473ffffffffffffffffffffffffffffffffffffffff169050816000806101000a81548173ffffffffffffffffffffffffffffffffffffffff021916908373ffffffffffffffffffffffffffffffffffffffff1602179055508173ffffffffffffffffffffffffffffffffffffffff168173ffffffffffffffffffffffffffffffffffffffff167f8be0079c531659141344cd1fd0a4f28419497f9722a3daafe3b4186f6b6457e060405160405180910390a35050565b61320780620001396000396000f3fe6080604052600436106101145760003560e01c80637120334b116100a0578063ae28c3d911610064578063ae28c3d91461034b578063b296024d14610388578063ec91f2a4146103b3578063f2fde38b146103de578063f6be71d11461040757610114565b80637120334b146102a0578063715018a6146102c95780638da5cb5b146102e057806396b5a7551461030b578063a4d0a17e1461033457610114565b806336ebdb38116100e757806336ebdb38146101c1578063564e5619146101ea578063571a26a0146102135780636347a37714610259578063659dd2b41461028457610114565b806308cfdc37146101195780630c0b86ca146101425780630fb5a6b41461016d57806314306e3514610198575b600080fd5b34801561012557600080fd5b50610140600480360381019061013b91906123be565b610430565b005b34801561014e57600080fd5b50610157610a93565b6040516101649190612d95565b60405180910390f35b34801561017957600080fd5b50610182610a99565b60405161018f9190612d95565b60405180910390f35b3480156101a457600080fd5b506101bf60048036038101906101ba919061236c565b610a9f565b005b3480156101cd57600080fd5b506101e860048036038101906101e3919061245f565b610bac565b005b3480156101f657600080fd5b50610211600480360381019061020c919061236c565b610c7d565b005b34801561021f57600080fd5b5061023a60048036038101906102359190612436565b610d8b565b6040516102509a99989796959493929190612aa3565b60405180910390f35b34801561026557600080fd5b5061026e610e59565b60405161027b9190612d95565b60405180910390f35b61029e60048036038101906102999190612436565b610e5f565b005b3480156102ac57600080fd5b506102c760048036038101906102c29190612436565b611325565b005b3480156102d557600080fd5b506102de6113e2565b005b3480156102ec57600080fd5b506102f561146a565b6040516103029190612a28565b60405180910390f35b34801561031757600080fd5b50610332600480360381019061032d9190612436565b611493565b005b34801561034057600080fd5b506103496118bb565b005b34801561035757600080fd5b50610372600480360381019061036d919061236c565b611df7565b60405161037f9190612b3f565b60405180910390f35b34801561039457600080fd5b5061039d611e4d565b6040516103aa9190612efa565b60405180910390f35b3480156103bf57600080fd5b506103c8611e60565b6040516103d59190612d95565b60405180910390f35b3480156103ea57600080fd5b506104056004803603810190610400919061236c565b611e66565b005b34801561041357600080fd5b5061042e60048036038101906104299190612436565b611f5e565b005b600160003373ffffffffffffffffffffffffffffffffffffffff1673ffffffffffffffffffffffffffffffffffffffff16815260200190815260200160002060009054906101000a900460ff166104bc576040517f08c379a00000000000000000000000000000000000000000000000000000000081526004016104b390612bd5565b60405180910390fd5b6104f4600060149054906101000a900460e01b8473ffffffffffffffffffffffffffffffffffffffff16611fe490919063ffffffff16565b610533576040517f08c379a000000000000000000000000000000000000000000000000000000000815260040161052a90612d35565b60405180910390fd5b60008390503373ffffffffffffffffffffffffffffffffffffffff168173ffffffffffffffffffffffffffffffffffffffff16636352211e856040518263ffffffff1660e01b81526004016105889190612d95565b60206040518083038186803b1580156105a057600080fd5b505afa1580156105b4573d6000803e3d6000fd5b505050506040513d601f19601f820116820180604052508101906105d89190612395565b73ffffffffffffffffffffffffffffffffffffffff161461062e576040517f08c379a000000000000000000000000000000000000000000000000000000000815260040161062590612d55565b60405180910390fd5b3073ffffffffffffffffffffffffffffffffffffffff168173ffffffffffffffffffffffffffffffffffffffff1663081812fc856040518263ffffffff1660e01b815260040161067e9190612d95565b60206040518083038186803b15801561069657600080fd5b505afa1580156106aa573d6000803e3d6000fd5b505050506040513d601f19601f820116820180604052508101906106ce9190612395565b73ffffffffffffffffffffffffffffffffffffffff16148061077757508073ffffffffffffffffffffffffffffffffffffffff1663e985e9c533306040518363ffffffff1660e01b8152600401610726929190612a43565b60206040518083038186803b15801561073e57600080fd5b505afa158015610752573d6000803e3d6000fd5b505050506040513d601f19601f82011682018060405250810190610776919061240d565b5b6107b6576040517f08c379a00000000000000000000000000000000000000000000000000000000081526004016107ad90612c35565b60405180910390fd5b8073ffffffffffffffffffffffffffffffffffffffff166323b872dd3330866040518463ffffffff1660e01b81526004016107f393929190612a6c565b600060405180830381600087803b15801561080d57600080fd5b505af1158015610821573d6000803e3d6000fd5b505050506040518061014001604052803373ffffffffffffffffffffffffffffffffffffffff1681526020018573ffffffffffffffffffffffffffffffffffffffff1681526020018481526020016000815260200160008152602001600015158152602001600073ffffffffffffffffffffffffffffffffffffffff1681526020016000815260200183815260200160001515815250600260006108c56005612009565b815260200190815260200160002060008201518160000160006101000a81548173ffffffffffffffffffffffffffffffffffffffff021916908373ffffffffffffffffffffffffffffffffffffffff16021790555060208201518160010160006101000a81548173ffffffffffffffffffffffffffffffffffffffff021916908373ffffffffffffffffffffffffffffffffffffffff16021790555060408201518160020155606082015181600301556080820151816004015560a08201518160050160006101000a81548160ff02191690831515021790555060c08201518160050160016101000a81548173ffffffffffffffffffffffffffffffffffffffff021916908373ffffffffffffffffffffffffffffffffffffffff16021790555060e0820151816006015561010082015181600701556101208201518160080160006101000a81548160ff0219169083151502179055509050507ff0333e5cf5c8ccaa9126f8221a024088a5e61e121f21afa11259ca6606a1a47c610a4a6005612009565b33868686604051610a5f959493929190612db0565b60405180910390a1600354610a746005612009565b1415610a8357610a82612017565b5b610a8d60056120a9565b50505050565b60035481565b60075481565b610aa76120bf565b73ffffffffffffffffffffffffffffffffffffffff16610ac561146a565b73ffffffffffffffffffffffffffffffffffffffff1614610b1b576040517f08c379a0000000000000000000000000000000000000000000000000000000008152600401610b1290612cb5565b60405180910390fd5b60018060008373ffffffffffffffffffffffffffffffffffffffff1673ffffffffffffffffffffffffffffffffffffffff16815260200190815260200160002060006101000a81548160ff0219169083151502179055507fbc7abdf8533487db28f8c616affbb4e122d90c5ab8deb258fd21b09cee59573081604051610ba19190612a28565b60405180910390a150565b610bb46120bf565b73ffffffffffffffffffffffffffffffffffffffff16610bd261146a565b73ffffffffffffffffffffffffffffffffffffffff1614610c28576040517f08c379a0000000000000000000000000000000000000000000000000000000008152600401610c1f90612cb5565b60405180910390fd5b80600660006101000a81548160ff021916908360ff1602179055507fec5ccd96cc77b6219e9d44143df916af68fc169339ea7de5008ff15eae13450d81604051610c729190612edf565b60405180910390a150565b610c856120bf565b73ffffffffffffffffffffffffffffffffffffffff16610ca361146a565b73ffffffffffffffffffffffffffffffffffffffff1614610cf9576040517f08c379a0000000000000000000000000000000000000000000000000000000008152600401610cf090612cb5565b60405180910390fd5b6000600160008373ffffffffffffffffffffffffffffffffffffffff1673ffffffffffffffffffffffffffffffffffffffff16815260200190815260200160002060006101000a81548160ff0219169083151502179055507fbf2e373b8263f701e10efcac80ea442afcb29c6852b3a42b0b46cc8edaaf54a781604051610d809190612a28565b60405180910390a150565b60026020528060005260406000206000915090508060000160009054906101000a900473ffffffffffffffffffffffffffffffffffffffff16908060010160009054906101000a900473ffffffffffffffffffffffffffffffffffffffff16908060020154908060030154908060040154908060050160009054906101000a900460ff16908060050160019054906101000a900473ffffffffffffffffffffffffffffffffffffffff16908060060154908060070154908060080160009054906101000a900460ff1690508a565b60045481565b6003548114610ea3576040517f08c379a0000000000000000000000000000000000000000000000000000000008152600401610e9a90612b75565b60405180910390fd5b6000600260006003548152602001908152602001600020604051806101400160405290816000820160009054906101000a900473ffffffffffffffffffffffffffffffffffffffff1673ffffffffffffffffffffffffffffffffffffffff1673ffffffffffffffffffffffffffffffffffffffff1681526020016001820160009054906101000a900473ffffffffffffffffffffffffffffffffffffffff1673ffffffffffffffffffffffffffffffffffffffff1673ffffffffffffffffffffffffffffffffffffffff1681526020016002820154815260200160038201548152602001600482015481526020016005820160009054906101000a900460ff161515151581526020016005820160019054906101000a900473ffffffffffffffffffffffffffffffffffffffff1673ffffffffffffffffffffffffffffffffffffffff1673ffffffffffffffffffffffffffffffffffffffff16815260200160068201548152602001600782015481526020016008820160009054906101000a900460ff161515151581525050905060008160600151141561107a576040517f08c379a000000000000000000000000000000000000000000000000000000000815260040161107190612bf5565b60405180910390fd5b806080015142106110c0576040517f08c379a00000000000000000000000000000000000000000000000000000000081526004016110b790612d75565b60405180910390fd5b806101000151341015611108576040517f08c379a00000000000000000000000000000000000000000000000000000000081526004016110ff90612c15565b60405180910390fd5b6064600660009054906101000a900460ff1660ff168260e0015161112c9190612fc3565b6111369190612f92565b8160e001516111459190612f3c565b341015611187576040517f08c379a000000000000000000000000000000000000000000000000000000000815260040161117e90612c75565b60405180910390fd5b8060c0015173ffffffffffffffffffffffffffffffffffffffff166108fc8260e001519081150290604051600060405180830381858888f193505050501580156111d5573d6000803e3d6000fd5b5034600260006003548152602001908152602001600020600601819055503360026000600354815260200190815260200160002060050160016101000a81548173ffffffffffffffffffffffffffffffffffffffff021916908373ffffffffffffffffffffffffffffffffffffffff160217905550600060085442836080015161125f919061301d565b109050801561129b57600854426112769190612f3c565b8260800181815250600260006003548152602001908152602001600020600401819055505b7f1159164c56f277e6fc99c11731bd380e0347deb969b75523398734c252706ea36003543334846040516112d29493929190612e3a565b60405180910390a18015611320577f6e912a3a9105bdd2af817ba5adc14e6c127c1035b5b648faa29ca0d58ab8ff4e6003548360800151604051611317929190612e7f565b60405180910390a15b505050565b61132d6120bf565b73ffffffffffffffffffffffffffffffffffffffff1661134b61146a565b73ffffffffffffffffffffffffffffffffffffffff16146113a1576040517f08c379a000000000000000000000000000000000000000000000000000000000815260040161139890612cb5565b60405180910390fd5b806008819055507f1b55d9f7002bda4490f467e326f22a4a847629c0f2d1ed421607d318d25b410d816040516113d79190612d95565b60405180910390a150565b6113ea6120bf565b73ffffffffffffffffffffffffffffffffffffffff1661140861146a565b73ffffffffffffffffffffffffffffffffffffffff161461145e576040517f08c379a000000000000000000000000000000000000000000000000000000000815260040161145590612cb5565b60405180910390fd5b61146860006120c7565b565b60008060009054906101000a900473ffffffffffffffffffffffffffffffffffffffff16905090565b600060026000838152602001908152602001600020604051806101400160405290816000820160009054906101000a900473ffffffffffffffffffffffffffffffffffffffff1673ffffffffffffffffffffffffffffffffffffffff1673ffffffffffffffffffffffffffffffffffffffff1681526020016001820160009054906101000a900473ffffffffffffffffffffffffffffffffffffffff1673ffffffffffffffffffffffffffffffffffffffff1673ffffffffffffffffffffffffffffffffffffffff1681526020016002820154815260200160038201548152602001600482015481526020016005820160009054906101000a900460ff161515151581526020016005820160019054906101000a900473ffffffffffffffffffffffffffffffffffffffff1673ffffffffffffffffffffffffffffffffffffffff1673ffffffffffffffffffffffffffffffffffffffff16815260200160068201548152602001600782015481526020016008820160009054906101000a900460ff1615151515815250509050600073ffffffffffffffffffffffffffffffffffffffff16816000015173ffffffffffffffffffffffffffffffffffffffff161415611694576040517f08c379a000000000000000000000000000000000000000000000000000000000815260040161168b90612c95565b60405180910390fd5b61169c61146a565b73ffffffffffffffffffffffffffffffffffffffff163373ffffffffffffffffffffffffffffffffffffffff1614806117045750806000015173ffffffffffffffffffffffffffffffffffffffff163373ffffffffffffffffffffffffffffffffffffffff16145b611743576040517f08c379a000000000000000000000000000000000000000000000000000000000815260040161173a90612cf5565b60405180910390fd5b600081606001511461178a576040517f08c379a000000000000000000000000000000000000000000000000000000000815260040161178190612d15565b60405180910390fd5b806101200151156117d0576040517f08c379a00000000000000000000000000000000000000000000000000000000081526004016117c790612b95565b60405180910390fd5b6000816020015190508073ffffffffffffffffffffffffffffffffffffffff166323b872dd30846000015185604001516040518463ffffffff1660e01b815260040161181e93929190612a6c565b600060405180830381600087803b15801561183857600080fd5b505af115801561184c573d6000803e3d6000fd5b5050505060016002600085815260200190815260200160002060080160006101000a81548160ff0219169083151502179055507f2809c7e17bf978fbc7194c0a694b638c4215e9140cacc6c38ca36010b45697df836040516118ae9190612d95565b60405180910390a1505050565b6000600260006003548152602001908152602001600020604051806101400160405290816000820160009054906101000a900473ffffffffffffffffffffffffffffffffffffffff1673ffffffffffffffffffffffffffffffffffffffff1673ffffffffffffffffffffffffffffffffffffffff1681526020016001820160009054906101000a900473ffffffffffffffffffffffffffffffffffffffff1673ffffffffffffffffffffffffffffffffffffffff1673ffffffffffffffffffffffffffffffffffffffff1681526020016002820154815260200160038201548152602001600482015481526020016005820160009054906101000a900460ff161515151581526020016005820160019054906101000a900473ffffffffffffffffffffffffffffffffffffffff1673ffffffffffffffffffffffffffffffffffffffff1673ffffffffffffffffffffffffffffffffffffffff16815260200160068201548152602001600782015481526020016008820160009054906101000a900460ff1615151515815250509050600081606001511415611a92576040517f08c379a0000000000000000000000000000000000000000000000000000000008152600401611a8990612bf5565b60405180910390fd5b8060a0015115611ad7576040517f08c379a0000000000000000000000000000000000000000000000000000000008152600401611ace90612cd5565b60405180910390fd5b8060800151421015611b1e576040517f08c379a0000000000000000000000000000000000000000000000000000000008152600401611b1590612c55565b60405180910390fd5b600160026000600354815260200190815260200160002060050160006101000a81548160ff021916908315150217905550600081602001519050600073ffffffffffffffffffffffffffffffffffffffff168260c0015173ffffffffffffffffffffffffffffffffffffffff161415611c0d578073ffffffffffffffffffffffffffffffffffffffff166323b872dd30846000015185604001516040518463ffffffff1660e01b8152600401611bd693929190612a6c565b600060405180830381600087803b158015611bf057600080fd5b505af1158015611c04573d6000803e3d6000fd5b50505050611cd4565b8073ffffffffffffffffffffffffffffffffffffffff166323b872dd308460c0015185604001516040518463ffffffff1660e01b8152600401611c5293929190612a6c565b600060405180830381600087803b158015611c6c57600080fd5b505af1158015611c80573d6000803e3d6000fd5b50505050816000015173ffffffffffffffffffffffffffffffffffffffff166108fc8360e001519081150290604051600060405180830381858888f19350505050158015611cd2573d6000803e3d6000fd5b505b7fc9f72b276a388619c6d185d146697036241880c36654b1a3ffdad07c24038d996003548360c001518460e00151604051611d1193929190612e03565b60405180910390a1600160036000828254611d2c9190612f3c565b925050819055505b60026000600354815260200190815260200160002060080160009054906101000a900460ff1615611d7e57600160036000828254611d729190612f3c565b92505081905550611d34565b600073ffffffffffffffffffffffffffffffffffffffff1660026000600354815260200190815260200160002060000160009054906101000a900473ffffffffffffffffffffffffffffffffffffffff1673ffffffffffffffffffffffffffffffffffffffff1614611df357611df2612017565b5b5050565b6000600160008373ffffffffffffffffffffffffffffffffffffffff1673ffffffffffffffffffffffffffffffffffffffff16815260200190815260200160002060009054906101000a900460ff169050919050565b600660009054906101000a900460ff1681565b60085481565b611e6e6120bf565b73ffffffffffffffffffffffffffffffffffffffff16611e8c61146a565b73ffffffffffffffffffffffffffffffffffffffff1614611ee2576040517f08c379a0000000000000000000000000000000000000000000000000000000008152600401611ed990612cb5565b60405180910390fd5b600073ffffffffffffffffffffffffffffffffffffffff168173ffffffffffffffffffffffffffffffffffffffff161415611f52576040517f08c379a0000000000000000000000000000000000000000000000000000000008152600401611f4990612bb5565b60405180910390fd5b611f5b816120c7565b50565b611f666120bf565b73ffffffffffffffffffffffffffffffffffffffff16611f8461146a565b73ffffffffffffffffffffffffffffffffffffffff1614611fda576040517f08c379a0000000000000000000000000000000000000000000000000000000008152600401611fd190612cb5565b60405180910390fd5b8060078190555050565b6000611fef8361218b565b8015612001575061200083836121d8565b5b905092915050565b600081600001549050919050565b600042905060006007548261202c9190612f3c565b9050816002600060035481526020019081526020016000206003018190555080600260006003548152602001908152602001600020600401819055507f44c53be110c6aa83aa83cd02e351ed172359268272ee1b5d31c0fe48db35c6c7600354838360405161209d93929190612ea8565b60405180910390a15050565b6001816000016000828254019250508190555050565b600033905090565b60008060009054906101000a900473ffffffffffffffffffffffffffffffffffffffff169050816000806101000a81548173ffffffffffffffffffffffffffffffffffffffff021916908373ffffffffffffffffffffffffffffffffffffffff1602179055508173ffffffffffffffffffffffffffffffffffffffff168173ffffffffffffffffffffffffffffffffffffffff167f8be0079c531659141344cd1fd0a4f28419497f9722a3daafe3b4186f6b6457e060405160405180910390a35050565b60006121b7827f01ffc9a7000000000000000000000000000000000000000000000000000000006121d8565b80156121d157506121cf8263ffffffff60e01b6121d8565b155b9050919050565b6000806301ffc9a760e01b836040516024016121f49190612b5a565b604051602081830303815290604052907bffffffffffffffffffffffffffffffffffffffffffffffffffffffff19166020820180517bffffffffffffffffffffffffffffffffffffffffffffffffffffffff838183161783525050505090506000808573ffffffffffffffffffffffffffffffffffffffff166175308460405161227e9190612a11565b6000604051808303818686fa925050503d80600081146122ba576040519150601f19603f3d011682016040523d82523d6000602084013e6122bf565b606091505b50915091506020815110156122da57600093505050506122fd565b8180156122f75750808060200190518101906122f6919061240d565b5b93505050505b92915050565b60008135905061231281613175565b92915050565b60008151905061232781613175565b92915050565b60008151905061233c8161318c565b92915050565b600081359050612351816131a3565b92915050565b600081359050612366816131ba565b92915050565b60006020828403121561237e57600080fd5b600061238c84828501612303565b91505092915050565b6000602082840312156123a757600080fd5b60006123b584828501612318565b91505092915050565b6000806000606084860312156123d357600080fd5b60006123e186828701612303565b93505060206123f286828701612342565b925050604061240386828701612342565b9150509250925092565b60006020828403121561241f57600080fd5b600061242d8482850161232d565b91505092915050565b60006020828403121561244857600080fd5b600061245684828501612342565b91505092915050565b60006020828403121561247157600080fd5b600061247f84828501612357565b91505092915050565b61249181613051565b82525050565b6124a081613063565b82525050565b6124af8161306f565b82525050565b60006124c082612f15565b6124ca8185612f20565b93506124da8185602086016130e4565b80840191505092915050565b60006124f3600e83612f2b565b91507f41756374696f6e204e6f742055700000000000000000000000000000000000006000830152602082019050919050565b6000612533601983612f2b565b91507f41756374696f6e20416c72656164792043616e63656c6c6564000000000000006000830152602082019050919050565b6000612573602683612f2b565b91507f4f776e61626c653a206e6577206f776e657220697320746865207a65726f206160008301527f64647265737300000000000000000000000000000000000000000000000000006020830152604082019050919050565b60006125d9601483612f2b565b91507f596f7520417265204e6f7420417070726f7665640000000000000000000000006000830152602082019050919050565b6000612619601483612f2b565b91507f41756374696f6e206861736e277420626567756e0000000000000000000000006000830152602082019050919050565b6000612659601f83612f2b565b91507f4d7573742073656e64206174206c6561737420726573657276655072696365006000830152602082019050919050565b6000612699602783612f2b565b91507f546f6b656e206973206e6f7420617070726f76656420666f722074686973206360008301527f6f6e7472616374000000000000000000000000000000000000000000000000006020830152604082019050919050565b60006126ff601483612f2b565b91507f41756374696f6e206e6f74206f766572207965740000000000000000000000006000830152602082019050919050565b600061273f604083612f2b565b91507f4d7573742073656e64206d6f7265207468616e206c617374206269642062792060008301527f6d696e426964496e6372656d656e7450657263656e7461676520616d6f756e746020830152604082019050919050565b60006127a5601283612f2b565b91507f496e76616c69642061756374696f6e20696400000000000000000000000000006000830152602082019050919050565b60006127e5602083612f2b565b91507f4f776e61626c653a2063616c6c6572206973206e6f7420746865206f776e65726000830152602082019050919050565b6000612825602083612f2b565b91507f41756374696f6e2068617320616c7265616479206265656e20736574746c65646000830152602082019050919050565b6000612865601683612f2b565b91507f596f7520617265206e6f7420617574686f72697a6564000000000000000000006000830152602082019050919050565b60006128a5602a83612f2b565b91507f596f752061726520746f6f206c61746520746f2063616e63656c20746f20746860008301527f69732061756374696f6e000000000000000000000000000000000000000000006020830152604082019050919050565b600061290b601983612f2b565b91507f4f6e6c792045524337323120546f6b656e20416c6c6f776564000000000000006000830152602082019050919050565b600061294b602383612f2b565b91507f596f7520617265206e6f7420746865206f776e6572206f66207468697320746f60008301527f6b656e00000000000000000000000000000000000000000000000000000000006020830152604082019050919050565b60006129b1600f83612f2b565b91507f41756374696f6e206578706972656400000000000000000000000000000000006000830152602082019050919050565b6129ed816130bb565b82525050565b6129fc816130d2565b82525050565b612a0b816130c5565b82525050565b6000612a1d82846124b5565b915081905092915050565b6000602082019050612a3d6000830184612488565b92915050565b6000604082019050612a586000830185612488565b612a656020830184612488565b9392505050565b6000606082019050612a816000830186612488565b612a8e6020830185612488565b612a9b60408301846129e4565b949350505050565b600061014082019050612ab9600083018d612488565b612ac6602083018c612488565b612ad3604083018b6129e4565b612ae0606083018a6129e4565b612aed60808301896129e4565b612afa60a0830188612497565b612b0760c0830187612488565b612b1460e08301866129e4565b612b226101008301856129e4565b612b30610120830184612497565b9b9a5050505050505050505050565b6000602082019050612b546000830184612497565b92915050565b6000602082019050612b6f60008301846124a6565b92915050565b60006020820190508181036000830152612b8e816124e6565b9050919050565b60006020820190508181036000830152612bae81612526565b9050919050565b60006020820190508181036000830152612bce81612566565b9050919050565b60006020820190508181036000830152612bee816125cc565b9050919050565b60006020820190508181036000830152612c0e8161260c565b9050919050565b60006020820190508181036000830152612c2e8161264c565b9050919050565b60006020820190508181036000830152612c4e8161268c565b9050919050565b60006020820190508181036000830152612c6e816126f2565b9050919050565b60006020820190508181036000830152612c8e81612732565b9050919050565b60006020820190508181036000830152612cae81612798565b9050919050565b60006020820190508181036000830152612cce816127d8565b9050919050565b60006020820190508181036000830152612cee81612818565b9050919050565b60006020820190508181036000830152612d0e81612858565b9050919050565b60006020820190508181036000830152612d2e81612898565b9050919050565b60006020820190508181036000830152612d4e816128fe565b9050919050565b60006020820190508181036000830152612d6e8161293e565b9050919050565b60006020820190508181036000830152612d8e816129a4565b9050919050565b6000602082019050612daa60008301846129e4565b92915050565b600060a082019050612dc560008301886129e4565b612dd26020830187612488565b612ddf6040830186612488565b612dec60608301856129e4565b612df960808301846129e4565b9695505050505050565b6000606082019050612e1860008301866129e4565b612e256020830185612488565b612e3260408301846129e4565b949350505050565b6000608082019050612e4f60008301876129e4565b612e5c6020830186612488565b612e6960408301856129e4565b612e766060830184612497565b95945050505050565b6000604082019050612e9460008301856129e4565b612ea160208301846129e4565b9392505050565b6000606082019050612ebd60008301866129e4565b612eca60208301856129e4565b612ed760408301846129e4565b949350505050565b6000602082019050612ef460008301846129f3565b92915050565b6000602082019050612f0f6000830184612a02565b92915050565b600081519050919050565b600081905092915050565b600082825260208201905092915050565b6000612f47826130bb565b9150612f52836130bb565b9250827fffffffffffffffffffffffffffffffffffffffffffffffffffffffffffffffff03821115612f8757612f86613117565b5b828201905092915050565b6000612f9d826130bb565b9150612fa8836130bb565b925082612fb857612fb7613146565b5b828204905092915050565b6000612fce826130bb565b9150612fd9836130bb565b9250817fffffffffffffffffffffffffffffffffffffffffffffffffffffffffffffffff048311821515161561301257613011613117565b5b828202905092915050565b6000613028826130bb565b9150613033836130bb565b92508282101561304657613045613117565b5b828203905092915050565b600061305c8261309b565b9050919050565b60008115159050919050565b60007fffffffff0000000000000000000000000000000000000000000000000000000082169050919050565b600073ffffffffffffffffffffffffffffffffffffffff82169050919050565b6000819050919050565b600060ff82169050919050565b60006130dd826130c5565b9050919050565b60005b838110156131025780820151818401526020810190506130e7565b83811115613111576000848401525b50505050565b7f4e487b7100000000000000000000000000000000000000000000000000000000600052601160045260246000fd5b7f4e487b7100000000000000000000000000000000000000000000000000000000600052601260045260246000fd5b61317e81613051565b811461318957600080fd5b50565b61319581613063565b81146131a057600080fd5b50565b6131ac816130bb565b81146131b757600080fd5b50565b6131c3816130c5565b81146131ce57600080fd5b5056fea26469706673582212206b8edc2bb17772f4cd68493a1b5aa7c229824f4145b3fe696022bbc6b11873d964736f6c63430008000033",
  "immutableReferences": {},
  "source": "// SPDX-License-Identifier: MIT\npragma solidity >=0.4.22 <0.9.0;\n\nimport \"@openzeppelin/contracts/access/Ownable.sol\";\nimport \"@openzeppelin/contracts/token/ERC20/IERC20.sol\";\nimport \"@openzeppelin/contracts/token/ERC721/IERC721.sol\";\nimport \"@openzeppelin/contracts/utils/introspection/ERC165Checker.sol\";\nimport \"@openzeppelin/contracts/utils/Counters.sol\";\n\ncontract AuctionHouse is Ownable {\n    using ERC165Checker for address;\n    using Counters for Counters.Counter;\n\n    bytes4 private InterfaceId_ERC721 = 0x80ac58cd;\n\n    mapping(address => bool) private _approvedAccounts;\n\n    struct Auction {\n        address owner;\n        address contractAddress;\n        uint256 tokenId;\n        uint256 startTime;\n        uint256 endTime;\n        bool settled;\n        address currentBidder;\n        uint256 currentBid;\n        uint256 reservePrice;\n        bool cancelled;\n    }\n\n    mapping(uint256 => Auction) public auctions;\n    uint256 public currentAuctionId;\n    uint256 public nextAuction;\n    Counters.Counter private _auctionIdCounter;\n\n    // The minimum percentage difference between the last bid amount and the current bid\n    uint8 public minBidIncrementPercentage;\n\n    // The duration of a single auction\n    uint256 public duration;\n\n    // The minimum amount of time left in an auction after a new bid is created\n    uint256 public timeBuffer;\n\n    event AccountApproved(address account);\n    event AccountRemoved(address account);\n    event AuctionAdded(\n        uint256 auctionId,\n        address owner,\n        address contractAddress,\n        uint256 tokenId,\n        uint256 reservePrice\n    );\n    event AuctionStarted(uint256 auctionId, uint256 startTime, uint256 endTime);\n    event AuctionMinBidIncrementPercentageUpdated(\n        uint256 _minBidIncrementPercentage\n    );\n    event AuctionTimeBufferUpdated(uint256 _timeBuffer);\n    event AuctionBid(\n        uint256 auctionId,\n        address bidder,\n        uint256 value,\n        bool extended\n    );\n    event AuctionExtended(uint256 auctionId, uint256 endTime);\n    event AuctionSettled(uint256 auctionId, address bidder, uint256 value);\n    event AuctionCancelled(uint256 auctionId);\n\n    modifier onlyApprovedAccount() {\n        require(_approvedAccounts[msg.sender], \"You Are Not Approved\");\n        _;\n    }\n\n    function addApprovedAccount(address account) public onlyOwner {\n        _approvedAccounts[account] = true;\n        emit AccountApproved(account);\n    }\n\n    function removeApprovedAccount(address account) public onlyOwner {\n        _approvedAccounts[account] = false;\n        emit AccountRemoved(account);\n    }\n\n    function isApprovedAccount(address account) public view returns (bool) {\n        return _approvedAccounts[account];\n    }\n\n    function setDuration(uint256 _duration) public onlyOwner {\n        duration = _duration;\n    }\n\n    function setMinBidIncrementPercentage(uint8 _minBidIncrementPercentage)\n        external\n        onlyOwner\n    {\n        minBidIncrementPercentage = _minBidIncrementPercentage;\n\n        emit AuctionMinBidIncrementPercentageUpdated(\n            _minBidIncrementPercentage\n        );\n    }\n\n    function setTimeBuffer(uint256 _timeBuffer) external onlyOwner {\n        timeBuffer = _timeBuffer;\n\n        emit AuctionTimeBufferUpdated(_timeBuffer);\n    }\n\n    function addNFT(\n        address contractAddress,\n        uint256 tokenId,\n        uint256 reservePrice\n    ) public onlyApprovedAccount {\n        require(\n            contractAddress.supportsInterface(InterfaceId_ERC721),\n            \"Only ERC721 Token Allowed\"\n        );\n        IERC721 tokenContract = IERC721(contractAddress);\n        require(\n            tokenContract.ownerOf(tokenId) == msg.sender,\n            \"You are not the owner of this token\"\n        );\n        require(\n            tokenContract.getApproved(tokenId) == address(this) ||\n                tokenContract.isApprovedForAll(msg.sender, address(this)),\n            \"Token is not approved for this contract\"\n        );\n        tokenContract.transferFrom(msg.sender, address(this), tokenId);\n        auctions[_auctionIdCounter.current()] = Auction(\n            msg.sender, // owner\n            contractAddress, // contract address\n            tokenId, // token id\n            0, // start time\n            0, // end time\n            false, // settled\n            address(0), // current bidder\n            0, // current bid\n            reservePrice, // reserve price\n            false\n        );\n        emit AuctionAdded(\n            _auctionIdCounter.current(),\n            msg.sender,\n            contractAddress,\n            tokenId,\n            reservePrice\n        );\n        //TODO Check if no auction is live and then activate this\n        if (_auctionIdCounter.current() == currentAuctionId) {\n            // activate auction\n            _startAuction();\n        }\n        _auctionIdCounter.increment();\n    }\n\n    function createBid(uint256 auctionId) public payable {\n        require(auctionId == currentAuctionId, \"Auction Not Up\");\n        Auction memory _auction = auctions[currentAuctionId];\n        require(_auction.startTime != 0, \"Auction hasn't begun\");\n        require(block.timestamp < _auction.endTime, \"Auction expired\");\n        require(\n            msg.value >= _auction.reservePrice,\n            \"Must send at least reservePrice\"\n        );\n        require(\n            msg.value >=\n                _auction.currentBid +\n                    ((_auction.currentBid * minBidIncrementPercentage) / 100),\n            \"Must send more than last bid by minBidIncrementPercentage amount\"\n        );\n\n        payable(_auction.currentBidder).transfer(_auction.currentBid);\n\n        auctions[currentAuctionId].currentBid = msg.value;\n        auctions[currentAuctionId].currentBidder = msg.sender;\n\n        bool extended = _auction.endTime - block.timestamp < timeBuffer;\n        if (extended) {\n            auctions[currentAuctionId].endTime = _auction.endTime =\n                block.timestamp +\n                timeBuffer;\n        }\n\n        emit AuctionBid(currentAuctionId, msg.sender, msg.value, extended);\n\n        if (extended) {\n            emit AuctionExtended(currentAuctionId, _auction.endTime);\n        }\n    }\n\n    function settleAuction() public {\n        Auction memory _auction = auctions[currentAuctionId];\n        require(_auction.startTime != 0, \"Auction hasn't begun\");\n        require(!_auction.settled, \"Auction has already been settled\");\n        require(block.timestamp >= _auction.endTime, \"Auction not over yet\");\n\n        auctions[currentAuctionId].settled = true;\n\n        IERC721 tokenContract = IERC721(_auction.contractAddress);\n\n        if (_auction.currentBidder == address(0)) {\n            // Transfer to Original Owner\n            tokenContract.transferFrom(\n                address(this),\n                _auction.owner,\n                _auction.tokenId\n            );\n        } else {\n            // Transfer to Current Bidder\n            tokenContract.transferFrom(\n                address(this),\n                _auction.currentBidder,\n                _auction.tokenId\n            );\n\n            // Transfer Amount to the Owner\n            payable(_auction.owner).transfer(_auction.currentBid);\n        }\n\n        emit AuctionSettled(\n            currentAuctionId,\n            _auction.currentBidder,\n            _auction.currentBid\n        );\n\n        currentAuctionId += 1;\n\n        // check for cancelled auctions and pass them\n        while (auctions[currentAuctionId].cancelled) {\n            currentAuctionId += 1;\n        }\n\n        // check if auction exist and if exist start it\n        if (auctions[currentAuctionId].owner != address(0)) {\n            _startAuction();\n        }\n    }\n\n    function cancelAuction(uint256 _auctionId) public {\n        Auction memory _auction = auctions[_auctionId];\n        require(_auction.owner != address(0), \"Invalid auction id\");\n        require(\n            msg.sender == owner() || msg.sender == _auction.owner,\n            \"You are not authorized\"\n        );\n        require(\n            _auction.startTime == 0,\n            \"You are too late to cancel to this auction\"\n        );\n        require(!_auction.cancelled, \"Auction Already Cancelled\");\n\n        // Transfer nft to Original Owner\n        IERC721 tokenContract = IERC721(_auction.contractAddress);\n        tokenContract.transferFrom(\n            address(this),\n            _auction.owner,\n            _auction.tokenId\n        );\n\n        auctions[_auctionId].cancelled = true;\n\n        emit AuctionCancelled(_auctionId);\n    }\n\n    function _startAuction() internal {\n        uint256 startTime = block.timestamp;\n        uint256 endTime = startTime + duration;\n        auctions[currentAuctionId].startTime = startTime;\n        auctions[currentAuctionId].endTime = endTime;\n        emit AuctionStarted(currentAuctionId, startTime, endTime);\n    }\n}\n",
  "sourcePath": "/home/yash/Development/arsyan_work/bidding/smart_contract/contracts/AuctionHouse.sol",
  "compiler": {
    "name": "solc",
    "version": "0.8.0+commit.c7dfd78e.Emscripten.clang"
  },
  "schemaVersion": "3.4.1",
  "updatedAt": "2021-09-09T18:40:35.223Z",
  "networkType": "ethereum",
  "devdoc": {
    "kind": "dev",
    "methods": {
      "owner()": {
        "details": "Returns the address of the current owner."
      },
      "renounceOwnership()": {
        "details": "Leaves the contract without owner. It will not be possible to call `onlyOwner` functions anymore. Can only be called by the current owner. NOTE: Renouncing ownership will leave the contract without an owner, thereby removing any functionality that is only available to the owner."
      },
      "transferOwnership(address)": {
        "details": "Transfers ownership of the contract to a new account (`newOwner`). Can only be called by the current owner."
      }
    },
    "version": 1
  },
  "userdoc": {
    "kind": "user",
    "methods": {},
    "version": 1
  }
}