{
  "contractName": "AuctionHouse",
  "abi": [
    {
      "anonymous": false,
      "inputs": [
        {
          "indexed": false,
          "internalType": "address",
          "name": "account",
          "type": "address"
        }
      ],
      "name": "AccountApproved",
      "type": "event"
    },
    {
      "anonymous": false,
      "inputs": [
        {
          "indexed": false,
          "internalType": "address",
          "name": "account",
          "type": "address"
        }
      ],
      "name": "AccountRemoved",
      "type": "event"
    },
    {
      "anonymous": false,
      "inputs": [
        {
          "indexed": false,
          "internalType": "uint256",
          "name": "auctionId",
          "type": "uint256"
        },
        {
          "indexed": false,
          "internalType": "address",
          "name": "bidder",
          "type": "address"
        },
        {
          "indexed": false,
          "internalType": "uint256",
          "name": "value",
          "type": "uint256"
        },
        {
          "indexed": false,
          "internalType": "bool",
          "name": "extended",
          "type": "bool"
        }
      ],
      "name": "AuctionBid",
      "type": "event"
    },
    {
      "anonymous": false,
      "inputs": [
        {
          "indexed": false,
          "internalType": "uint256",
          "name": "auctionId",
          "type": "uint256"
        },
        {
          "indexed": false,
          "internalType": "uint256",
          "name": "endTime",
          "type": "uint256"
        }
      ],
      "name": "AuctionExtended",
      "type": "event"
    },
    {
      "anonymous": false,
      "inputs": [
        {
          "indexed": false,
          "internalType": "uint256",
          "name": "_minBidIncrementPercentage",
          "type": "uint256"
        }
      ],
      "name": "AuctionMinBidIncrementPercentageUpdated",
      "type": "event"
    },
    {
      "anonymous": false,
      "inputs": [
        {
          "indexed": false,
          "internalType": "uint256",
          "name": "auctionId",
          "type": "uint256"
        },
        {
          "indexed": false,
          "internalType": "address",
          "name": "bidder",
          "type": "address"
        },
        {
          "indexed": false,
          "internalType": "uint256",
          "name": "value",
          "type": "uint256"
        }
      ],
      "name": "AuctionSettled",
      "type": "event"
    },
    {
      "anonymous": false,
      "inputs": [
        {
          "indexed": false,
          "internalType": "uint256",
          "name": "_timeBuffer",
          "type": "uint256"
        }
      ],
      "name": "AuctionTimeBufferUpdated",
      "type": "event"
    },
    {
      "anonymous": false,
      "inputs": [
        {
          "indexed": true,
          "internalType": "address",
          "name": "previousOwner",
          "type": "address"
        },
        {
          "indexed": true,
          "internalType": "address",
          "name": "newOwner",
          "type": "address"
        }
      ],
      "name": "OwnershipTransferred",
      "type": "event"
    },
    {
      "inputs": [
        {
          "internalType": "uint256",
          "name": "",
          "type": "uint256"
        }
      ],
      "name": "auctions",
      "outputs": [
        {
          "internalType": "address",
          "name": "owner",
          "type": "address"
        },
        {
          "internalType": "address",
          "name": "contractAddress",
          "type": "address"
        },
        {
          "internalType": "uint256",
          "name": "tokenId",
          "type": "uint256"
        },
        {
          "internalType": "uint256",
          "name": "startTime",
          "type": "uint256"
        },
        {
          "internalType": "uint256",
          "name": "endTime",
          "type": "uint256"
        },
        {
          "internalType": "bool",
          "name": "settled",
          "type": "bool"
        },
        {
          "internalType": "address",
          "name": "currentBidder",
          "type": "address"
        },
        {
          "internalType": "uint256",
          "name": "currentBid",
          "type": "uint256"
        },
        {
          "internalType": "uint256",
          "name": "reservePrice",
          "type": "uint256"
        }
      ],
      "stateMutability": "view",
      "type": "function",
      "constant": true
    },
    {
      "inputs": [],
      "name": "currentAuctionId",
      "outputs": [
        {
          "internalType": "uint256",
          "name": "",
          "type": "uint256"
        }
      ],
      "stateMutability": "view",
      "type": "function",
      "constant": true
    },
    {
      "inputs": [],
      "name": "duration",
      "outputs": [
        {
          "internalType": "uint256",
          "name": "",
          "type": "uint256"
        }
      ],
      "stateMutability": "view",
      "type": "function",
      "constant": true
    },
    {
      "inputs": [],
      "name": "minBidIncrementPercentage",
      "outputs": [
        {
          "internalType": "uint8",
          "name": "",
          "type": "uint8"
        }
      ],
      "stateMutability": "view",
      "type": "function",
      "constant": true
    },
    {
      "inputs": [],
      "name": "nextAuction",
      "outputs": [
        {
          "internalType": "uint256",
          "name": "",
          "type": "uint256"
        }
      ],
      "stateMutability": "view",
      "type": "function",
      "constant": true
    },
    {
      "inputs": [],
      "name": "owner",
      "outputs": [
        {
          "internalType": "address",
          "name": "",
          "type": "address"
        }
      ],
      "stateMutability": "view",
      "type": "function",
      "constant": true
    },
    {
      "inputs": [],
      "name": "renounceOwnership",
      "outputs": [],
      "stateMutability": "nonpayable",
      "type": "function"
    },
    {
      "inputs": [],
      "name": "timeBuffer",
      "outputs": [
        {
          "internalType": "uint256",
          "name": "",
          "type": "uint256"
        }
      ],
      "stateMutability": "view",
      "type": "function",
      "constant": true
    },
    {
      "inputs": [
        {
          "internalType": "address",
          "name": "newOwner",
          "type": "address"
        }
      ],
      "name": "transferOwnership",
      "outputs": [],
      "stateMutability": "nonpayable",
      "type": "function"
    },
    {
      "inputs": [
        {
          "internalType": "address",
          "name": "account",
          "type": "address"
        }
      ],
      "name": "addApprovedAccount",
      "outputs": [],
      "stateMutability": "nonpayable",
      "type": "function"
    },
    {
      "inputs": [
        {
          "internalType": "address",
          "name": "account",
          "type": "address"
        }
      ],
      "name": "removeApprovedAccount",
      "outputs": [],
      "stateMutability": "nonpayable",
      "type": "function"
    },
    {
      "inputs": [
        {
          "internalType": "address",
          "name": "account",
          "type": "address"
        }
      ],
      "name": "isApprovedAccount",
      "outputs": [
        {
          "internalType": "bool",
          "name": "",
          "type": "bool"
        }
      ],
      "stateMutability": "view",
      "type": "function",
      "constant": true
    },
    {
      "inputs": [
        {
          "internalType": "uint256",
          "name": "_duration",
          "type": "uint256"
        }
      ],
      "name": "setDuration",
      "outputs": [],
      "stateMutability": "nonpayable",
      "type": "function"
    },
    {
      "inputs": [
        {
          "internalType": "uint8",
          "name": "_minBidIncrementPercentage",
          "type": "uint8"
        }
      ],
      "name": "setMinBidIncrementPercentage",
      "outputs": [],
      "stateMutability": "nonpayable",
      "type": "function"
    },
    {
      "inputs": [
        {
          "internalType": "uint256",
          "name": "_timeBuffer",
          "type": "uint256"
        }
      ],
      "name": "setTimeBuffer",
      "outputs": [],
      "stateMutability": "nonpayable",
      "type": "function"
    },
    {
      "inputs": [
        {
          "internalType": "address",
          "name": "contractAddress",
          "type": "address"
        },
        {
          "internalType": "uint256",
          "name": "tokenId",
          "type": "uint256"
        },
        {
          "internalType": "uint256",
          "name": "reservePrice",
          "type": "uint256"
        }
      ],
      "name": "addNFT",
      "outputs": [],
      "stateMutability": "nonpayable",
      "type": "function"
    },
    {
      "inputs": [
        {
          "internalType": "uint256",
          "name": "auctionId",
          "type": "uint256"
        }
      ],
      "name": "createBid",
      "outputs": [],
      "stateMutability": "payable",
      "type": "function",
      "payable": true
    },
    {
      "inputs": [],
      "name": "settleAuction",
      "outputs": [],
      "stateMutability": "nonpayable",
      "type": "function"
    }
  ],
  "bytecode": "0x60806040526380ac58cd60e01b600060146101000a81548163ffffffff021916908360e01c02179055503480156200003657600080fd5b50620000576200004b6200005d60201b60201c565b6200006560201b60201c565b62000129565b600033905090565b60008060009054906101000a900473ffffffffffffffffffffffffffffffffffffffff169050816000806101000a81548173ffffffffffffffffffffffffffffffffffffffff021916908373ffffffffffffffffffffffffffffffffffffffff1602179055508173ffffffffffffffffffffffffffffffffffffffff168173ffffffffffffffffffffffffffffffffffffffff167f8be0079c531659141344cd1fd0a4f28419497f9722a3daafe3b4186f6b6457e060405160405180910390a35050565b612a1c80620001396000396000f3fe6080604052600436106101095760003560e01c80637120334b11610095578063ae28c3d911610064578063ae28c3d914610316578063b296024d14610353578063ec91f2a41461037e578063f2fde38b146103a9578063f6be71d1146103d257610109565b80637120334b14610294578063715018a6146102bd5780638da5cb5b146102d4578063a4d0a17e146102ff57610109565b806336ebdb38116100dc57806336ebdb38146101b6578063564e5619146101df578063571a26a0146102085780636347a3771461024d578063659dd2b41461027857610109565b806308cfdc371461010e5780630c0b86ca146101375780630fb5a6b41461016257806314306e351461018d575b600080fd5b34801561011a57600080fd5b5061013560048036038101906101309190611e12565b6103fb565b005b34801561014357600080fd5b5061014c6109ec565b6040516101599190612634565b60405180910390f35b34801561016e57600080fd5b506101776109f2565b6040516101849190612634565b60405180910390f35b34801561019957600080fd5b506101b460048036038101906101af9190611dc0565b6109f8565b005b3480156101c257600080fd5b506101dd60048036038101906101d89190611eb3565b610b05565b005b3480156101eb57600080fd5b5061020660048036038101906102019190611dc0565b610bd6565b005b34801561021457600080fd5b5061022f600480360381019061022a9190611e8a565b610ce4565b604051610244999897969594939291906123d1565b60405180910390f35b34801561025957600080fd5b50610262610d9f565b60405161026f9190612634565b60405180910390f35b610292600480360381019061028d9190611e8a565b610da5565b005b3480156102a057600080fd5b506102bb60048036038101906102b69190611e8a565b611250565b005b3480156102c957600080fd5b506102d261130d565b005b3480156102e057600080fd5b506102e9611395565b6040516102f69190612356565b60405180910390f35b34801561030b57600080fd5b506103146113be565b005b34801561032257600080fd5b5061033d60048036038101906103389190611dc0565b611894565b60405161034a919061245e565b60405180910390f35b34801561035f57600080fd5b506103686118ea565b604051610375919061270f565b60405180910390f35b34801561038a57600080fd5b506103936118fd565b6040516103a09190612634565b60405180910390f35b3480156103b557600080fd5b506103d060048036038101906103cb9190611dc0565b611903565b005b3480156103de57600080fd5b506103f960048036038101906103f49190611e8a565b6119fb565b005b600160003373ffffffffffffffffffffffffffffffffffffffff1673ffffffffffffffffffffffffffffffffffffffff16815260200190815260200160002060009054906101000a900460ff16610487576040517f08c379a000000000000000000000000000000000000000000000000000000000815260040161047e906124d4565b60405180910390fd5b6104bf600060149054906101000a900460e01b8473ffffffffffffffffffffffffffffffffffffffff16611a8190919063ffffffff16565b6104fe576040517f08c379a00000000000000000000000000000000000000000000000000000000081526004016104f5906125d4565b60405180910390fd5b60008390503373ffffffffffffffffffffffffffffffffffffffff168173ffffffffffffffffffffffffffffffffffffffff16636352211e856040518263ffffffff1660e01b81526004016105539190612634565b60206040518083038186803b15801561056b57600080fd5b505afa15801561057f573d6000803e3d6000fd5b505050506040513d601f19601f820116820180604052508101906105a39190611de9565b73ffffffffffffffffffffffffffffffffffffffff16146105f9576040517f08c379a00000000000000000000000000000000000000000000000000000000081526004016105f0906125f4565b60405180910390fd5b3073ffffffffffffffffffffffffffffffffffffffff168173ffffffffffffffffffffffffffffffffffffffff1663081812fc856040518263ffffffff1660e01b81526004016106499190612634565b60206040518083038186803b15801561066157600080fd5b505afa158015610675573d6000803e3d6000fd5b505050506040513d601f19601f820116820180604052508101906106999190611de9565b73ffffffffffffffffffffffffffffffffffffffff16148061074257508073ffffffffffffffffffffffffffffffffffffffff1663e985e9c533306040518363ffffffff1660e01b81526004016106f1929190612371565b60206040518083038186803b15801561070957600080fd5b505afa15801561071d573d6000803e3d6000fd5b505050506040513d601f19601f820116820180604052508101906107419190611e61565b5b610781576040517f08c379a000000000000000000000000000000000000000000000000000000000815260040161077890612534565b60405180910390fd5b8073ffffffffffffffffffffffffffffffffffffffff166323b872dd3330866040518463ffffffff1660e01b81526004016107be9392919061239a565b600060405180830381600087803b1580156107d857600080fd5b505af11580156107ec573d6000803e3d6000fd5b505050506040518061012001604052803373ffffffffffffffffffffffffffffffffffffffff1681526020018573ffffffffffffffffffffffffffffffffffffffff1681526020018481526020016000815260200160008152602001600015158152602001600073ffffffffffffffffffffffffffffffffffffffff1681526020016000815260200183815250600260006108876005611aa6565b815260200190815260200160002060008201518160000160006101000a81548173ffffffffffffffffffffffffffffffffffffffff021916908373ffffffffffffffffffffffffffffffffffffffff16021790555060208201518160010160006101000a81548173ffffffffffffffffffffffffffffffffffffffff021916908373ffffffffffffffffffffffffffffffffffffffff16021790555060408201518160020155606082015181600301556080820151816004015560a08201518160050160006101000a81548160ff02191690831515021790555060c08201518160050160016101000a81548173ffffffffffffffffffffffffffffffffffffffff021916908373ffffffffffffffffffffffffffffffffffffffff16021790555060e0820151816006015561010082015181600701559050506003546109cd6005611aa6565b14156109dc576109db611ab4565b5b6109e66005611afd565b50505050565b60035481565b60075481565b610a00611b13565b73ffffffffffffffffffffffffffffffffffffffff16610a1e611395565b73ffffffffffffffffffffffffffffffffffffffff1614610a74576040517f08c379a0000000000000000000000000000000000000000000000000000000008152600401610a6b90612594565b60405180910390fd5b60018060008373ffffffffffffffffffffffffffffffffffffffff1673ffffffffffffffffffffffffffffffffffffffff16815260200190815260200160002060006101000a81548160ff0219169083151502179055507fbc7abdf8533487db28f8c616affbb4e122d90c5ab8deb258fd21b09cee59573081604051610afa9190612356565b60405180910390a150565b610b0d611b13565b73ffffffffffffffffffffffffffffffffffffffff16610b2b611395565b73ffffffffffffffffffffffffffffffffffffffff1614610b81576040517f08c379a0000000000000000000000000000000000000000000000000000000008152600401610b7890612594565b60405180910390fd5b80600660006101000a81548160ff021916908360ff1602179055507fec5ccd96cc77b6219e9d44143df916af68fc169339ea7de5008ff15eae13450d81604051610bcb91906126f4565b60405180910390a150565b610bde611b13565b73ffffffffffffffffffffffffffffffffffffffff16610bfc611395565b73ffffffffffffffffffffffffffffffffffffffff1614610c52576040517f08c379a0000000000000000000000000000000000000000000000000000000008152600401610c4990612594565b60405180910390fd5b6000600160008373ffffffffffffffffffffffffffffffffffffffff1673ffffffffffffffffffffffffffffffffffffffff16815260200190815260200160002060006101000a81548160ff0219169083151502179055507fbf2e373b8263f701e10efcac80ea442afcb29c6852b3a42b0b46cc8edaaf54a781604051610cd99190612356565b60405180910390a150565b60026020528060005260406000206000915090508060000160009054906101000a900473ffffffffffffffffffffffffffffffffffffffff16908060010160009054906101000a900473ffffffffffffffffffffffffffffffffffffffff16908060020154908060030154908060040154908060050160009054906101000a900460ff16908060050160019054906101000a900473ffffffffffffffffffffffffffffffffffffffff16908060060154908060070154905089565b60045481565b6003548114610de9576040517f08c379a0000000000000000000000000000000000000000000000000000000008152600401610de090612494565b60405180910390fd5b6000600260006003548152602001908152602001600020604051806101200160405290816000820160009054906101000a900473ffffffffffffffffffffffffffffffffffffffff1673ffffffffffffffffffffffffffffffffffffffff1673ffffffffffffffffffffffffffffffffffffffff1681526020016001820160009054906101000a900473ffffffffffffffffffffffffffffffffffffffff1673ffffffffffffffffffffffffffffffffffffffff1673ffffffffffffffffffffffffffffffffffffffff1681526020016002820154815260200160038201548152602001600482015481526020016005820160009054906101000a900460ff161515151581526020016005820160019054906101000a900473ffffffffffffffffffffffffffffffffffffffff1673ffffffffffffffffffffffffffffffffffffffff1673ffffffffffffffffffffffffffffffffffffffff168152602001600682015481526020016007820154815250509050600081606001511415610fa5576040517f08c379a0000000000000000000000000000000000000000000000000000000008152600401610f9c906124f4565b60405180910390fd5b80608001514210610feb576040517f08c379a0000000000000000000000000000000000000000000000000000000008152600401610fe290612614565b60405180910390fd5b806101000151341015611033576040517f08c379a000000000000000000000000000000000000000000000000000000000815260040161102a90612514565b60405180910390fd5b6064600660009054906101000a900460ff1660ff168260e0015161105791906127d8565b61106191906127a7565b8160e001516110709190612751565b3410156110b2576040517f08c379a00000000000000000000000000000000000000000000000000000000081526004016110a990612574565b60405180910390fd5b8060c0015173ffffffffffffffffffffffffffffffffffffffff166108fc8260e001519081150290604051600060405180830381858888f19350505050158015611100573d6000803e3d6000fd5b5034600260006003548152602001908152602001600020600601819055503360026000600354815260200190815260200160002060050160016101000a81548173ffffffffffffffffffffffffffffffffffffffff021916908373ffffffffffffffffffffffffffffffffffffffff160217905550600060085442836080015161118a9190612832565b10905080156111c657600854426111a19190612751565b8260800181815250600260006003548152602001908152602001600020600401819055505b7f1159164c56f277e6fc99c11731bd380e0347deb969b75523398734c252706ea36003543334846040516111fd9493929190612686565b60405180910390a1801561124b577f6e912a3a9105bdd2af817ba5adc14e6c127c1035b5b648faa29ca0d58ab8ff4e60035483608001516040516112429291906126cb565b60405180910390a15b505050565b611258611b13565b73ffffffffffffffffffffffffffffffffffffffff16611276611395565b73ffffffffffffffffffffffffffffffffffffffff16146112cc576040517f08c379a00000000000000000000000000000000000000000000000000000000081526004016112c390612594565b60405180910390fd5b806008819055507f1b55d9f7002bda4490f467e326f22a4a847629c0f2d1ed421607d318d25b410d816040516113029190612634565b60405180910390a150565b611315611b13565b73ffffffffffffffffffffffffffffffffffffffff16611333611395565b73ffffffffffffffffffffffffffffffffffffffff1614611389576040517f08c379a000000000000000000000000000000000000000000000000000000000815260040161138090612594565b60405180910390fd5b6113936000611b1b565b565b60008060009054906101000a900473ffffffffffffffffffffffffffffffffffffffff16905090565b6000600260006003548152602001908152602001600020604051806101200160405290816000820160009054906101000a900473ffffffffffffffffffffffffffffffffffffffff1673ffffffffffffffffffffffffffffffffffffffff1673ffffffffffffffffffffffffffffffffffffffff1681526020016001820160009054906101000a900473ffffffffffffffffffffffffffffffffffffffff1673ffffffffffffffffffffffffffffffffffffffff1673ffffffffffffffffffffffffffffffffffffffff1681526020016002820154815260200160038201548152602001600482015481526020016005820160009054906101000a900460ff161515151581526020016005820160019054906101000a900473ffffffffffffffffffffffffffffffffffffffff1673ffffffffffffffffffffffffffffffffffffffff1673ffffffffffffffffffffffffffffffffffffffff16815260200160068201548152602001600782015481525050905060008160600151141561157a576040517f08c379a0000000000000000000000000000000000000000000000000000000008152600401611571906124f4565b60405180910390fd5b8060a00151156115bf576040517f08c379a00000000000000000000000000000000000000000000000000000000081526004016115b6906125b4565b60405180910390fd5b8060800151421015611606576040517f08c379a00000000000000000000000000000000000000000000000000000000081526004016115fd90612554565b60405180910390fd5b600160026000600354815260200190815260200160002060050160006101000a81548160ff021916908315150217905550600081602001519050600073ffffffffffffffffffffffffffffffffffffffff168260c0015173ffffffffffffffffffffffffffffffffffffffff1614156116f5578073ffffffffffffffffffffffffffffffffffffffff166323b872dd30846000015185604001516040518463ffffffff1660e01b81526004016116be9392919061239a565b600060405180830381600087803b1580156116d857600080fd5b505af11580156116ec573d6000803e3d6000fd5b505050506117bc565b8073ffffffffffffffffffffffffffffffffffffffff166323b872dd308460c0015185604001516040518463ffffffff1660e01b815260040161173a9392919061239a565b600060405180830381600087803b15801561175457600080fd5b505af1158015611768573d6000803e3d6000fd5b50505050816000015173ffffffffffffffffffffffffffffffffffffffff166108fc8360e001519081150290604051600060405180830381858888f193505050501580156117ba573d6000803e3d6000fd5b505b7fc9f72b276a388619c6d185d146697036241880c36654b1a3ffdad07c24038d996003548360c001518460e001516040516117f99392919061264f565b60405180910390a16001600360008282546118149190612751565b92505081905550600073ffffffffffffffffffffffffffffffffffffffff1660026000600354815260200190815260200160002060000160009054906101000a900473ffffffffffffffffffffffffffffffffffffffff1673ffffffffffffffffffffffffffffffffffffffff16146118905761188f611ab4565b5b5050565b6000600160008373ffffffffffffffffffffffffffffffffffffffff1673ffffffffffffffffffffffffffffffffffffffff16815260200190815260200160002060009054906101000a900460ff169050919050565b600660009054906101000a900460ff1681565b60085481565b61190b611b13565b73ffffffffffffffffffffffffffffffffffffffff16611929611395565b73ffffffffffffffffffffffffffffffffffffffff161461197f576040517f08c379a000000000000000000000000000000000000000000000000000000000815260040161197690612594565b60405180910390fd5b600073ffffffffffffffffffffffffffffffffffffffff168173ffffffffffffffffffffffffffffffffffffffff1614156119ef576040517f08c379a00000000000000000000000000000000000000000000000000000000081526004016119e6906124b4565b60405180910390fd5b6119f881611b1b565b50565b611a03611b13565b73ffffffffffffffffffffffffffffffffffffffff16611a21611395565b73ffffffffffffffffffffffffffffffffffffffff1614611a77576040517f08c379a0000000000000000000000000000000000000000000000000000000008152600401611a6e90612594565b60405180910390fd5b8060078190555050565b6000611a8c83611bdf565b8015611a9e5750611a9d8383611c2c565b5b905092915050565b600081600001549050919050565b426002600060035481526020019081526020016000206003018190555060075442611adf9190612751565b60026000600354815260200190815260200160002060040181905550565b6001816000016000828254019250508190555050565b600033905090565b60008060009054906101000a900473ffffffffffffffffffffffffffffffffffffffff169050816000806101000a81548173ffffffffffffffffffffffffffffffffffffffff021916908373ffffffffffffffffffffffffffffffffffffffff1602179055508173ffffffffffffffffffffffffffffffffffffffff168173ffffffffffffffffffffffffffffffffffffffff167f8be0079c531659141344cd1fd0a4f28419497f9722a3daafe3b4186f6b6457e060405160405180910390a35050565b6000611c0b827f01ffc9a700000000000000000000000000000000000000000000000000000000611c2c565b8015611c255750611c238263ffffffff60e01b611c2c565b155b9050919050565b6000806301ffc9a760e01b83604051602401611c489190612479565b604051602081830303815290604052907bffffffffffffffffffffffffffffffffffffffffffffffffffffffff19166020820180517bffffffffffffffffffffffffffffffffffffffffffffffffffffffff838183161783525050505090506000808573ffffffffffffffffffffffffffffffffffffffff1661753084604051611cd2919061233f565b6000604051808303818686fa925050503d8060008114611d0e576040519150601f19603f3d011682016040523d82523d6000602084013e611d13565b606091505b5091509150602081511015611d2e5760009350505050611d51565b818015611d4b575080806020019051810190611d4a9190611e61565b5b93505050505b92915050565b600081359050611d668161298a565b92915050565b600081519050611d7b8161298a565b92915050565b600081519050611d90816129a1565b92915050565b600081359050611da5816129b8565b92915050565b600081359050611dba816129cf565b92915050565b600060208284031215611dd257600080fd5b6000611de084828501611d57565b91505092915050565b600060208284031215611dfb57600080fd5b6000611e0984828501611d6c565b91505092915050565b600080600060608486031215611e2757600080fd5b6000611e3586828701611d57565b9350506020611e4686828701611d96565b9250506040611e5786828701611d96565b9150509250925092565b600060208284031215611e7357600080fd5b6000611e8184828501611d81565b91505092915050565b600060208284031215611e9c57600080fd5b6000611eaa84828501611d96565b91505092915050565b600060208284031215611ec557600080fd5b6000611ed384828501611dab565b91505092915050565b611ee581612866565b82525050565b611ef481612878565b82525050565b611f0381612884565b82525050565b6000611f148261272a565b611f1e8185612735565b9350611f2e8185602086016128f9565b80840191505092915050565b6000611f47600e83612740565b91507f41756374696f6e204e6f742055700000000000000000000000000000000000006000830152602082019050919050565b6000611f87602683612740565b91507f4f776e61626c653a206e6577206f776e657220697320746865207a65726f206160008301527f64647265737300000000000000000000000000000000000000000000000000006020830152604082019050919050565b6000611fed601483612740565b91507f596f7520417265204e6f7420417070726f7665640000000000000000000000006000830152602082019050919050565b600061202d601483612740565b91507f41756374696f6e206861736e277420626567756e0000000000000000000000006000830152602082019050919050565b600061206d601f83612740565b91507f4d7573742073656e64206174206c6561737420726573657276655072696365006000830152602082019050919050565b60006120ad602783612740565b91507f546f6b656e206973206e6f7420617070726f76656420666f722074686973206360008301527f6f6e7472616374000000000000000000000000000000000000000000000000006020830152604082019050919050565b6000612113601483612740565b91507f41756374696f6e206e6f74206f766572207965740000000000000000000000006000830152602082019050919050565b6000612153604083612740565b91507f4d7573742073656e64206d6f7265207468616e206c617374206269642062792060008301527f6d696e426964496e6372656d656e7450657263656e7461676520616d6f756e746020830152604082019050919050565b60006121b9602083612740565b91507f4f776e61626c653a2063616c6c6572206973206e6f7420746865206f776e65726000830152602082019050919050565b60006121f9602083612740565b91507f41756374696f6e2068617320616c7265616479206265656e20736574746c65646000830152602082019050919050565b6000612239601983612740565b91507f4f6e6c792045524337323120546f6b656e20416c6c6f776564000000000000006000830152602082019050919050565b6000612279602383612740565b91507f596f7520617265206e6f7420746865206f776e6572206f66207468697320746f60008301527f6b656e00000000000000000000000000000000000000000000000000000000006020830152604082019050919050565b60006122df600f83612740565b91507f41756374696f6e206578706972656400000000000000000000000000000000006000830152602082019050919050565b61231b816128d0565b82525050565b61232a816128e7565b82525050565b612339816128da565b82525050565b600061234b8284611f09565b915081905092915050565b600060208201905061236b6000830184611edc565b92915050565b60006040820190506123866000830185611edc565b6123936020830184611edc565b9392505050565b60006060820190506123af6000830186611edc565b6123bc6020830185611edc565b6123c96040830184612312565b949350505050565b6000610120820190506123e7600083018c611edc565b6123f4602083018b611edc565b612401604083018a612312565b61240e6060830189612312565b61241b6080830188612312565b61242860a0830187611eeb565b61243560c0830186611edc565b61244260e0830185612312565b612450610100830184612312565b9a9950505050505050505050565b60006020820190506124736000830184611eeb565b92915050565b600060208201905061248e6000830184611efa565b92915050565b600060208201905081810360008301526124ad81611f3a565b9050919050565b600060208201905081810360008301526124cd81611f7a565b9050919050565b600060208201905081810360008301526124ed81611fe0565b9050919050565b6000602082019050818103600083015261250d81612020565b9050919050565b6000602082019050818103600083015261252d81612060565b9050919050565b6000602082019050818103600083015261254d816120a0565b9050919050565b6000602082019050818103600083015261256d81612106565b9050919050565b6000602082019050818103600083015261258d81612146565b9050919050565b600060208201905081810360008301526125ad816121ac565b9050919050565b600060208201905081810360008301526125cd816121ec565b9050919050565b600060208201905081810360008301526125ed8161222c565b9050919050565b6000602082019050818103600083015261260d8161226c565b9050919050565b6000602082019050818103600083015261262d816122d2565b9050919050565b60006020820190506126496000830184612312565b92915050565b60006060820190506126646000830186612312565b6126716020830185611edc565b61267e6040830184612312565b949350505050565b600060808201905061269b6000830187612312565b6126a86020830186611edc565b6126b56040830185612312565b6126c26060830184611eeb565b95945050505050565b60006040820190506126e06000830185612312565b6126ed6020830184612312565b9392505050565b60006020820190506127096000830184612321565b92915050565b60006020820190506127246000830184612330565b92915050565b600081519050919050565b600081905092915050565b600082825260208201905092915050565b600061275c826128d0565b9150612767836128d0565b9250827fffffffffffffffffffffffffffffffffffffffffffffffffffffffffffffffff0382111561279c5761279b61292c565b5b828201905092915050565b60006127b2826128d0565b91506127bd836128d0565b9250826127cd576127cc61295b565b5b828204905092915050565b60006127e3826128d0565b91506127ee836128d0565b9250817fffffffffffffffffffffffffffffffffffffffffffffffffffffffffffffffff04831182151516156128275761282661292c565b5b828202905092915050565b600061283d826128d0565b9150612848836128d0565b92508282101561285b5761285a61292c565b5b828203905092915050565b6000612871826128b0565b9050919050565b60008115159050919050565b60007fffffffff0000000000000000000000000000000000000000000000000000000082169050919050565b600073ffffffffffffffffffffffffffffffffffffffff82169050919050565b6000819050919050565b600060ff82169050919050565b60006128f2826128da565b9050919050565b60005b838110156129175780820151818401526020810190506128fc565b83811115612926576000848401525b50505050565b7f4e487b7100000000000000000000000000000000000000000000000000000000600052601160045260246000fd5b7f4e487b7100000000000000000000000000000000000000000000000000000000600052601260045260246000fd5b61299381612866565b811461299e57600080fd5b50565b6129aa81612878565b81146129b557600080fd5b50565b6129c1816128d0565b81146129cc57600080fd5b50565b6129d8816128da565b81146129e357600080fd5b5056fea2646970667358221220f2d226587b428188240aca79f4eee7b13f6f88122f2d3b9cba6a8358ea83786b64736f6c63430008000033",
  "immutableReferences": {},
  "source": "// SPDX-License-Identifier: MIT\npragma solidity >=0.4.22 <0.9.0;\n\nimport \"@openzeppelin/contracts/access/Ownable.sol\";\nimport \"@openzeppelin/contracts/token/ERC20/IERC20.sol\";\nimport \"@openzeppelin/contracts/token/ERC721/IERC721.sol\";\nimport \"@openzeppelin/contracts/utils/introspection/ERC165Checker.sol\";\nimport \"@openzeppelin/contracts/utils/Counters.sol\";\n\ncontract AuctionHouse is Ownable {\n    using ERC165Checker for address;\n    using Counters for Counters.Counter;\n\n    bytes4 private InterfaceId_ERC721 = 0x80ac58cd;\n\n    mapping(address => bool) private _approvedAccounts;\n\n    struct Auction {\n        address owner;\n        address contractAddress;\n        uint256 tokenId;\n        uint256 startTime;\n        uint256 endTime;\n        bool settled;\n        address currentBidder;\n        uint256 currentBid;\n        uint256 reservePrice;\n    }\n\n    mapping(uint256 => Auction) public auctions;\n    uint256 public currentAuctionId;\n    uint256 public nextAuction;\n    Counters.Counter private _auctionIdCounter;\n\n    // The minimum percentage difference between the last bid amount and the current bid\n    uint8 public minBidIncrementPercentage;\n\n    // The duration of a single auction\n    uint256 public duration;\n\n    // The minimum amount of time left in an auction after a new bid is created\n    uint256 public timeBuffer;\n\n    event AccountApproved(address account);\n    event AccountRemoved(address account);\n    event AuctionMinBidIncrementPercentageUpdated(\n        uint256 _minBidIncrementPercentage\n    );\n    event AuctionTimeBufferUpdated(uint256 _timeBuffer);\n    event AuctionBid(\n        uint256 auctionId,\n        address bidder,\n        uint256 value,\n        bool extended\n    );\n    event AuctionExtended(uint256 auctionId, uint256 endTime);\n    event AuctionSettled(uint256 auctionId, address bidder, uint256 value);\n\n    modifier onlyApprovedAccount() {\n        require(_approvedAccounts[msg.sender], \"You Are Not Approved\");\n        _;\n    }\n\n    function addApprovedAccount(address account) public onlyOwner {\n        _approvedAccounts[account] = true;\n        emit AccountApproved(account);\n    }\n\n    function removeApprovedAccount(address account) public onlyOwner {\n        _approvedAccounts[account] = false;\n        emit AccountRemoved(account);\n    }\n\n    function isApprovedAccount(address account) public view returns (bool) {\n        return _approvedAccounts[account];\n    }\n\n    function setDuration(uint256 _duration) public onlyOwner {\n        duration = _duration;\n    }\n\n    function setMinBidIncrementPercentage(uint8 _minBidIncrementPercentage)\n        external\n        onlyOwner\n    {\n        minBidIncrementPercentage = _minBidIncrementPercentage;\n\n        emit AuctionMinBidIncrementPercentageUpdated(\n            _minBidIncrementPercentage\n        );\n    }\n\n    function setTimeBuffer(uint256 _timeBuffer) external onlyOwner {\n        timeBuffer = _timeBuffer;\n\n        emit AuctionTimeBufferUpdated(_timeBuffer);\n    }\n\n    function addNFT(\n        address contractAddress,\n        uint256 tokenId,\n        uint256 reservePrice\n    ) public onlyApprovedAccount {\n        require(\n            contractAddress.supportsInterface(InterfaceId_ERC721),\n            \"Only ERC721 Token Allowed\"\n        );\n        IERC721 tokenContract = IERC721(contractAddress);\n        require(\n            tokenContract.ownerOf(tokenId) == msg.sender,\n            \"You are not the owner of this token\"\n        );\n        require(\n            tokenContract.getApproved(tokenId) == address(this) ||\n                tokenContract.isApprovedForAll(msg.sender, address(this)),\n            \"Token is not approved for this contract\"\n        );\n        tokenContract.transferFrom(msg.sender, address(this), tokenId);\n        auctions[_auctionIdCounter.current()] = Auction(\n            msg.sender, // owner\n            contractAddress, // contract address\n            tokenId, // token id\n            0, // start time\n            0, // end time\n            false, // settled\n            address(0), // current bidder\n            0, // current bid\n            reservePrice // reserve price\n        );\n        //TODO Check if no auction is live and then activate this\n        if (_auctionIdCounter.current() == currentAuctionId) {\n            // activate auction\n            _startAuction();\n        }\n        _auctionIdCounter.increment();\n    }\n\n    function createBid(uint256 auctionId) public payable {\n        require(auctionId == currentAuctionId, \"Auction Not Up\");\n        Auction memory _auction = auctions[currentAuctionId];\n        require(_auction.startTime != 0, \"Auction hasn't begun\");\n        require(block.timestamp < _auction.endTime, \"Auction expired\");\n        require(\n            msg.value >= _auction.reservePrice,\n            \"Must send at least reservePrice\"\n        );\n        require(\n            msg.value >=\n                _auction.currentBid +\n                    ((_auction.currentBid * minBidIncrementPercentage) / 100),\n            \"Must send more than last bid by minBidIncrementPercentage amount\"\n        );\n\n        payable(_auction.currentBidder).transfer(_auction.currentBid);\n\n        auctions[currentAuctionId].currentBid = msg.value;\n        auctions[currentAuctionId].currentBidder = msg.sender;\n\n        bool extended = _auction.endTime - block.timestamp < timeBuffer;\n        if (extended) {\n            auctions[currentAuctionId].endTime = _auction.endTime =\n                block.timestamp +\n                timeBuffer;\n        }\n\n        emit AuctionBid(currentAuctionId, msg.sender, msg.value, extended);\n\n        if (extended) {\n            emit AuctionExtended(currentAuctionId, _auction.endTime);\n        }\n    }\n\n    function settleAuction() public {\n        Auction memory _auction = auctions[currentAuctionId];\n        require(_auction.startTime != 0, \"Auction hasn't begun\");\n        require(!_auction.settled, \"Auction has already been settled\");\n        require(block.timestamp >= _auction.endTime, \"Auction not over yet\");\n\n        auctions[currentAuctionId].settled = true;\n\n        IERC721 tokenContract = IERC721(_auction.contractAddress);\n\n        if (_auction.currentBidder == address(0)) {\n            // Transfer to Original Owner\n            tokenContract.transferFrom(\n                address(this),\n                _auction.owner,\n                _auction.tokenId\n            );\n        } else {\n            // Transfer to Current Bidder\n            tokenContract.transferFrom(\n                address(this),\n                _auction.currentBidder,\n                _auction.tokenId\n            );\n\n            // Transfer Amount to the Owner\n            payable(_auction.owner).transfer(_auction.currentBid);\n        }\n\n        emit AuctionSettled(\n            currentAuctionId,\n            _auction.currentBidder,\n            _auction.currentBid\n        );\n\n        currentAuctionId += 1;\n\n        if (auctions[currentAuctionId].owner != address(0)) {\n            _startAuction();\n        }\n    }\n\n    function _startAuction() internal {\n        auctions[currentAuctionId].startTime = block.timestamp;\n        auctions[currentAuctionId].endTime = block.timestamp + duration;\n    }\n}\n",
  "sourcePath": "/home/yash/Development/arsyan_work/bidding/contracts/AuctionHouse.sol",
  "compiler": {
    "name": "solc",
    "version": "0.8.0+commit.c7dfd78e.Emscripten.clang"
  },
  "schemaVersion": "3.4.1",
  "updatedAt": "2021-09-06T08:05:19.639Z",
  "networkType": "ethereum",
  "devdoc": {
    "kind": "dev",
    "methods": {
      "owner()": {
        "details": "Returns the address of the current owner."
      },
      "renounceOwnership()": {
        "details": "Leaves the contract without owner. It will not be possible to call `onlyOwner` functions anymore. Can only be called by the current owner. NOTE: Renouncing ownership will leave the contract without an owner, thereby removing any functionality that is only available to the owner."
      },
      "transferOwnership(address)": {
        "details": "Transfers ownership of the contract to a new account (`newOwner`). Can only be called by the current owner."
      }
    },
    "version": 1
  },
  "userdoc": {
    "kind": "user",
    "methods": {},
    "version": 1
  }
}