{
  "contractName": "TestNFTToken",
  "abi": [
    {
      "inputs": [],
      "stateMutability": "nonpayable",
      "type": "constructor"
    },
    {
      "anonymous": false,
      "inputs": [
        {
          "indexed": true,
          "internalType": "address",
          "name": "owner",
          "type": "address"
        },
        {
          "indexed": true,
          "internalType": "address",
          "name": "approved",
          "type": "address"
        },
        {
          "indexed": true,
          "internalType": "uint256",
          "name": "tokenId",
          "type": "uint256"
        }
      ],
      "name": "Approval",
      "type": "event"
    },
    {
      "anonymous": false,
      "inputs": [
        {
          "indexed": true,
          "internalType": "address",
          "name": "owner",
          "type": "address"
        },
        {
          "indexed": true,
          "internalType": "address",
          "name": "operator",
          "type": "address"
        },
        {
          "indexed": false,
          "internalType": "bool",
          "name": "approved",
          "type": "bool"
        }
      ],
      "name": "ApprovalForAll",
      "type": "event"
    },
    {
      "anonymous": false,
      "inputs": [
        {
          "indexed": true,
          "internalType": "address",
          "name": "previousOwner",
          "type": "address"
        },
        {
          "indexed": true,
          "internalType": "address",
          "name": "newOwner",
          "type": "address"
        }
      ],
      "name": "OwnershipTransferred",
      "type": "event"
    },
    {
      "anonymous": false,
      "inputs": [
        {
          "indexed": true,
          "internalType": "address",
          "name": "from",
          "type": "address"
        },
        {
          "indexed": true,
          "internalType": "address",
          "name": "to",
          "type": "address"
        },
        {
          "indexed": true,
          "internalType": "uint256",
          "name": "tokenId",
          "type": "uint256"
        }
      ],
      "name": "Transfer",
      "type": "event"
    },
    {
      "inputs": [
        {
          "internalType": "address",
          "name": "to",
          "type": "address"
        },
        {
          "internalType": "uint256",
          "name": "tokenId",
          "type": "uint256"
        }
      ],
      "name": "approve",
      "outputs": [],
      "stateMutability": "nonpayable",
      "type": "function"
    },
    {
      "inputs": [
        {
          "internalType": "address",
          "name": "owner",
          "type": "address"
        }
      ],
      "name": "balanceOf",
      "outputs": [
        {
          "internalType": "uint256",
          "name": "",
          "type": "uint256"
        }
      ],
      "stateMutability": "view",
      "type": "function",
      "constant": true
    },
    {
      "inputs": [
        {
          "internalType": "uint256",
          "name": "tokenId",
          "type": "uint256"
        }
      ],
      "name": "getApproved",
      "outputs": [
        {
          "internalType": "address",
          "name": "",
          "type": "address"
        }
      ],
      "stateMutability": "view",
      "type": "function",
      "constant": true
    },
    {
      "inputs": [
        {
          "internalType": "address",
          "name": "owner",
          "type": "address"
        },
        {
          "internalType": "address",
          "name": "operator",
          "type": "address"
        }
      ],
      "name": "isApprovedForAll",
      "outputs": [
        {
          "internalType": "bool",
          "name": "",
          "type": "bool"
        }
      ],
      "stateMutability": "view",
      "type": "function",
      "constant": true
    },
    {
      "inputs": [],
      "name": "name",
      "outputs": [
        {
          "internalType": "string",
          "name": "",
          "type": "string"
        }
      ],
      "stateMutability": "view",
      "type": "function",
      "constant": true
    },
    {
      "inputs": [],
      "name": "owner",
      "outputs": [
        {
          "internalType": "address",
          "name": "",
          "type": "address"
        }
      ],
      "stateMutability": "view",
      "type": "function",
      "constant": true
    },
    {
      "inputs": [
        {
          "internalType": "uint256",
          "name": "tokenId",
          "type": "uint256"
        }
      ],
      "name": "ownerOf",
      "outputs": [
        {
          "internalType": "address",
          "name": "",
          "type": "address"
        }
      ],
      "stateMutability": "view",
      "type": "function",
      "constant": true
    },
    {
      "inputs": [],
      "name": "renounceOwnership",
      "outputs": [],
      "stateMutability": "nonpayable",
      "type": "function"
    },
    {
      "inputs": [
        {
          "internalType": "address",
          "name": "from",
          "type": "address"
        },
        {
          "internalType": "address",
          "name": "to",
          "type": "address"
        },
        {
          "internalType": "uint256",
          "name": "tokenId",
          "type": "uint256"
        }
      ],
      "name": "safeTransferFrom",
      "outputs": [],
      "stateMutability": "nonpayable",
      "type": "function"
    },
    {
      "inputs": [
        {
          "internalType": "address",
          "name": "from",
          "type": "address"
        },
        {
          "internalType": "address",
          "name": "to",
          "type": "address"
        },
        {
          "internalType": "uint256",
          "name": "tokenId",
          "type": "uint256"
        },
        {
          "internalType": "bytes",
          "name": "_data",
          "type": "bytes"
        }
      ],
      "name": "safeTransferFrom",
      "outputs": [],
      "stateMutability": "nonpayable",
      "type": "function"
    },
    {
      "inputs": [
        {
          "internalType": "address",
          "name": "operator",
          "type": "address"
        },
        {
          "internalType": "bool",
          "name": "approved",
          "type": "bool"
        }
      ],
      "name": "setApprovalForAll",
      "outputs": [],
      "stateMutability": "nonpayable",
      "type": "function"
    },
    {
      "inputs": [
        {
          "internalType": "bytes4",
          "name": "interfaceId",
          "type": "bytes4"
        }
      ],
      "name": "supportsInterface",
      "outputs": [
        {
          "internalType": "bool",
          "name": "",
          "type": "bool"
        }
      ],
      "stateMutability": "view",
      "type": "function",
      "constant": true
    },
    {
      "inputs": [],
      "name": "symbol",
      "outputs": [
        {
          "internalType": "string",
          "name": "",
          "type": "string"
        }
      ],
      "stateMutability": "view",
      "type": "function",
      "constant": true
    },
    {
      "inputs": [
        {
          "internalType": "uint256",
          "name": "tokenId",
          "type": "uint256"
        }
      ],
      "name": "tokenURI",
      "outputs": [
        {
          "internalType": "string",
          "name": "",
          "type": "string"
        }
      ],
      "stateMutability": "view",
      "type": "function",
      "constant": true
    },
    {
      "inputs": [
        {
          "internalType": "address",
          "name": "from",
          "type": "address"
        },
        {
          "internalType": "address",
          "name": "to",
          "type": "address"
        },
        {
          "internalType": "uint256",
          "name": "tokenId",
          "type": "uint256"
        }
      ],
      "name": "transferFrom",
      "outputs": [],
      "stateMutability": "nonpayable",
      "type": "function"
    },
    {
      "inputs": [
        {
          "internalType": "address",
          "name": "newOwner",
          "type": "address"
        }
      ],
      "name": "transferOwnership",
      "outputs": [],
      "stateMutability": "nonpayable",
      "type": "function"
    },
    {
      "inputs": [
        {
          "internalType": "string",
          "name": "newURI",
          "type": "string"
        }
      ],
      "name": "setBaseURI",
      "outputs": [],
      "stateMutability": "nonpayable",
      "type": "function"
    },
    {
      "inputs": [
        {
          "internalType": "address",
          "name": "to",
          "type": "address"
        }
      ],
      "name": "safeMint",
      "outputs": [],
      "stateMutability": "nonpayable",
      "type": "function"
    }
  ],
  "bytecode": "0x60806040523480156200001157600080fd5b506040518060400160405280600e81526020017f54657374204e465420546f6b656e0000000000000000000000000000000000008152506040518060400160405280600381526020017f544e540000000000000000000000000000000000000000000000000000000000815250816000908051906020019062000096929190620001a6565b508060019080519060200190620000af929190620001a6565b505050620000d2620000c6620000d860201b60201c565b620000e060201b60201c565b620002bb565b600033905090565b6000600660009054906101000a900473ffffffffffffffffffffffffffffffffffffffff16905081600660006101000a81548173ffffffffffffffffffffffffffffffffffffffff021916908373ffffffffffffffffffffffffffffffffffffffff1602179055508173ffffffffffffffffffffffffffffffffffffffff168173ffffffffffffffffffffffffffffffffffffffff167f8be0079c531659141344cd1fd0a4f28419497f9722a3daafe3b4186f6b6457e060405160405180910390a35050565b828054620001b49062000256565b90600052602060002090601f016020900481019282620001d8576000855562000224565b82601f10620001f357805160ff191683800117855562000224565b8280016001018555821562000224579182015b828111156200022357825182559160200191906001019062000206565b5b50905062000233919062000237565b5090565b5b808211156200025257600081600090555060010162000238565b5090565b600060028204905060018216806200026f57607f821691505b602082108114156200028657620002856200028c565b5b50919050565b7f4e487b7100000000000000000000000000000000000000000000000000000000600052602260045260246000fd5b612d5c80620002cb6000396000f3fe608060405234801561001057600080fd5b50600436106101165760003560e01c806370a08231116100a2578063a22cb46511610071578063a22cb465146102cb578063b88d4fde146102e7578063c87b56dd14610303578063e985e9c514610333578063f2fde38b1461036357610116565b806370a0823114610255578063715018a6146102855780638da5cb5b1461028f57806395d89b41146102ad57610116565b806323b872dd116100e957806323b872dd146101b557806340d097c3146101d157806342842e0e146101ed57806355f804b3146102095780636352211e1461022557610116565b806301ffc9a71461011b57806306fdde031461014b578063081812fc14610169578063095ea7b314610199575b600080fd5b61013560048036038101906101309190611ed5565b61037f565b60405161014291906126b4565b60405180910390f35b610153610461565b60405161016091906126cf565b60405180910390f35b610183600480360381019061017e9190611f68565b6104f3565b604051610190919061264d565b60405180910390f35b6101b360048036038101906101ae9190611e99565b610578565b005b6101cf60048036038101906101ca9190611d93565b610690565b005b6101eb60048036038101906101e69190611d2e565b6106f0565b005b61020760048036038101906102029190611d93565b61078c565b005b610223600480360381019061021e9190611f27565b6107ac565b005b61023f600480360381019061023a9190611f68565b610842565b60405161024c919061264d565b60405180910390f35b61026f600480360381019061026a9190611d2e565b6108f4565b60405161027c91906128f1565b60405180910390f35b61028d6109ac565b005b610297610a34565b6040516102a4919061264d565b60405180910390f35b6102b5610a5e565b6040516102c291906126cf565b60405180910390f35b6102e560048036038101906102e09190611e5d565b610af0565b005b61030160048036038101906102fc9190611de2565b610c71565b005b61031d60048036038101906103189190611f68565b610cd3565b60405161032a91906126cf565b60405180910390f35b61034d60048036038101906103489190611d57565b610d7a565b60405161035a91906126b4565b60405180910390f35b61037d60048036038101906103789190611d2e565b610e0e565b005b60007f80ac58cd000000000000000000000000000000000000000000000000000000007bffffffffffffffffffffffffffffffffffffffffffffffffffffffff1916827bffffffffffffffffffffffffffffffffffffffffffffffffffffffff1916148061044a57507f5b5e139f000000000000000000000000000000000000000000000000000000007bffffffffffffffffffffffffffffffffffffffffffffffffffffffff1916827bffffffffffffffffffffffffffffffffffffffffffffffffffffffff1916145b8061045a575061045982610f06565b5b9050919050565b60606000805461047090612b51565b80601f016020809104026020016040519081016040528092919081815260200182805461049c90612b51565b80156104e95780601f106104be576101008083540402835291602001916104e9565b820191906000526020600020905b8154815290600101906020018083116104cc57829003601f168201915b5050505050905090565b60006104fe82610f70565b61053d576040517f08c379a000000000000000000000000000000000000000000000000000000000815260040161053490612831565b60405180910390fd5b6004600083815260200190815260200160002060009054906101000a900473ffffffffffffffffffffffffffffffffffffffff169050919050565b600061058382610842565b90508073ffffffffffffffffffffffffffffffffffffffff168373ffffffffffffffffffffffffffffffffffffffff1614156105f4576040517f08c379a00000000000000000000000000000000000000000000000000000000081526004016105eb906128b1565b60405180910390fd5b8073ffffffffffffffffffffffffffffffffffffffff16610613610fdc565b73ffffffffffffffffffffffffffffffffffffffff16148061064257506106418161063c610fdc565b610d7a565b5b610681576040517f08c379a0000000000000000000000000000000000000000000000000000000008152600401610678906127b1565b60405180910390fd5b61068b8383610fe4565b505050565b6106a161069b610fdc565b8261109d565b6106e0576040517f08c379a00000000000000000000000000000000000000000000000000000000081526004016106d7906128d1565b60405180910390fd5b6106eb83838361117b565b505050565b6106f8610fdc565b73ffffffffffffffffffffffffffffffffffffffff16610716610a34565b73ffffffffffffffffffffffffffffffffffffffff161461076c576040517f08c379a000000000000000000000000000000000000000000000000000000000815260040161076390612851565b60405180910390fd5b61077f8161077a60086113d7565b6113e5565b6107896008611403565b50565b6107a783838360405180602001604052806000815250610c71565b505050565b6107b4610fdc565b73ffffffffffffffffffffffffffffffffffffffff166107d2610a34565b73ffffffffffffffffffffffffffffffffffffffff1614610828576040517f08c379a000000000000000000000000000000000000000000000000000000000815260040161081f90612851565b60405180910390fd5b806007908051906020019061083e929190611b52565b5050565b6000806002600084815260200190815260200160002060009054906101000a900473ffffffffffffffffffffffffffffffffffffffff169050600073ffffffffffffffffffffffffffffffffffffffff168173ffffffffffffffffffffffffffffffffffffffff1614156108eb576040517f08c379a00000000000000000000000000000000000000000000000000000000081526004016108e2906127f1565b60405180910390fd5b80915050919050565b60008073ffffffffffffffffffffffffffffffffffffffff168273ffffffffffffffffffffffffffffffffffffffff161415610965576040517f08c379a000000000000000000000000000000000000000000000000000000000815260040161095c906127d1565b60405180910390fd5b600360008373ffffffffffffffffffffffffffffffffffffffff1673ffffffffffffffffffffffffffffffffffffffff168152602001908152602001600020549050919050565b6109b4610fdc565b73ffffffffffffffffffffffffffffffffffffffff166109d2610a34565b73ffffffffffffffffffffffffffffffffffffffff1614610a28576040517f08c379a0000000000000000000000000000000000000000000000000000000008152600401610a1f90612851565b60405180910390fd5b610a326000611419565b565b6000600660009054906101000a900473ffffffffffffffffffffffffffffffffffffffff16905090565b606060018054610a6d90612b51565b80601f0160208091040260200160405190810160405280929190818152602001828054610a9990612b51565b8015610ae65780601f10610abb57610100808354040283529160200191610ae6565b820191906000526020600020905b815481529060010190602001808311610ac957829003601f168201915b5050505050905090565b610af8610fdc565b73ffffffffffffffffffffffffffffffffffffffff168273ffffffffffffffffffffffffffffffffffffffff161415610b66576040517f08c379a0000000000000000000000000000000000000000000000000000000008152600401610b5d90612771565b60405180910390fd5b8060056000610b73610fdc565b73ffffffffffffffffffffffffffffffffffffffff1673ffffffffffffffffffffffffffffffffffffffff16815260200190815260200160002060008473ffffffffffffffffffffffffffffffffffffffff1673ffffffffffffffffffffffffffffffffffffffff16815260200190815260200160002060006101000a81548160ff0219169083151502179055508173ffffffffffffffffffffffffffffffffffffffff16610c20610fdc565b73ffffffffffffffffffffffffffffffffffffffff167f17307eab39ab6107e8899845ad3d59bd9653f200f220920489ca2b5937696c3183604051610c6591906126b4565b60405180910390a35050565b610c82610c7c610fdc565b8361109d565b610cc1576040517f08c379a0000000000000000000000000000000000000000000000000000000008152600401610cb8906128d1565b60405180910390fd5b610ccd848484846114df565b50505050565b6060610cde82610f70565b610d1d576040517f08c379a0000000000000000000000000000000000000000000000000000000008152600401610d1490612891565b60405180910390fd5b6000610d2761153b565b90506000815111610d475760405180602001604052806000815250610d72565b80610d51846115cd565b604051602001610d62929190612629565b6040516020818303038152906040525b915050919050565b6000600560008473ffffffffffffffffffffffffffffffffffffffff1673ffffffffffffffffffffffffffffffffffffffff16815260200190815260200160002060008373ffffffffffffffffffffffffffffffffffffffff1673ffffffffffffffffffffffffffffffffffffffff16815260200190815260200160002060009054906101000a900460ff16905092915050565b610e16610fdc565b73ffffffffffffffffffffffffffffffffffffffff16610e34610a34565b73ffffffffffffffffffffffffffffffffffffffff1614610e8a576040517f08c379a0000000000000000000000000000000000000000000000000000000008152600401610e8190612851565b60405180910390fd5b600073ffffffffffffffffffffffffffffffffffffffff168173ffffffffffffffffffffffffffffffffffffffff161415610efa576040517f08c379a0000000000000000000000000000000000000000000000000000000008152600401610ef190612711565b60405180910390fd5b610f0381611419565b50565b60007f01ffc9a7000000000000000000000000000000000000000000000000000000007bffffffffffffffffffffffffffffffffffffffffffffffffffffffff1916827bffffffffffffffffffffffffffffffffffffffffffffffffffffffff1916149050919050565b60008073ffffffffffffffffffffffffffffffffffffffff166002600084815260200190815260200160002060009054906101000a900473ffffffffffffffffffffffffffffffffffffffff1673ffffffffffffffffffffffffffffffffffffffff1614159050919050565b600033905090565b816004600083815260200190815260200160002060006101000a81548173ffffffffffffffffffffffffffffffffffffffff021916908373ffffffffffffffffffffffffffffffffffffffff160217905550808273ffffffffffffffffffffffffffffffffffffffff1661105783610842565b73ffffffffffffffffffffffffffffffffffffffff167f8c5be1e5ebec7d5bd14f71427d1e84f3dd0314c0f7b2291e5b200ac8c7c3b92560405160405180910390a45050565b60006110a882610f70565b6110e7576040517f08c379a00000000000000000000000000000000000000000000000000000000081526004016110de90612791565b60405180910390fd5b60006110f283610842565b90508073ffffffffffffffffffffffffffffffffffffffff168473ffffffffffffffffffffffffffffffffffffffff16148061116157508373ffffffffffffffffffffffffffffffffffffffff16611149846104f3565b73ffffffffffffffffffffffffffffffffffffffff16145b8061117257506111718185610d7a565b5b91505092915050565b8273ffffffffffffffffffffffffffffffffffffffff1661119b82610842565b73ffffffffffffffffffffffffffffffffffffffff16146111f1576040517f08c379a00000000000000000000000000000000000000000000000000000000081526004016111e890612871565b60405180910390fd5b600073ffffffffffffffffffffffffffffffffffffffff168273ffffffffffffffffffffffffffffffffffffffff161415611261576040517f08c379a000000000000000000000000000000000000000000000000000000000815260040161125890612751565b60405180910390fd5b61126c83838361177a565b611277600082610fe4565b6001600360008573ffffffffffffffffffffffffffffffffffffffff1673ffffffffffffffffffffffffffffffffffffffff16815260200190815260200160002060008282546112c79190612a67565b925050819055506001600360008473ffffffffffffffffffffffffffffffffffffffff1673ffffffffffffffffffffffffffffffffffffffff168152602001908152602001600020600082825461131e91906129e0565b92505081905550816002600083815260200190815260200160002060006101000a81548173ffffffffffffffffffffffffffffffffffffffff021916908373ffffffffffffffffffffffffffffffffffffffff160217905550808273ffffffffffffffffffffffffffffffffffffffff168473ffffffffffffffffffffffffffffffffffffffff167fddf252ad1be2c89b69c2b068fc378daa952ba7f163c4a11628f55a4df523b3ef60405160405180910390a4505050565b600081600001549050919050565b6113ff82826040518060200160405280600081525061177f565b5050565b6001816000016000828254019250508190555050565b6000600660009054906101000a900473ffffffffffffffffffffffffffffffffffffffff16905081600660006101000a81548173ffffffffffffffffffffffffffffffffffffffff021916908373ffffffffffffffffffffffffffffffffffffffff1602179055508173ffffffffffffffffffffffffffffffffffffffff168173ffffffffffffffffffffffffffffffffffffffff167f8be0079c531659141344cd1fd0a4f28419497f9722a3daafe3b4186f6b6457e060405160405180910390a35050565b6114ea84848461117b565b6114f6848484846117da565b611535576040517f08c379a000000000000000000000000000000000000000000000000000000000815260040161152c906126f1565b60405180910390fd5b50505050565b60606007805461154a90612b51565b80601f016020809104026020016040519081016040528092919081815260200182805461157690612b51565b80156115c35780601f10611598576101008083540402835291602001916115c3565b820191906000526020600020905b8154815290600101906020018083116115a657829003601f168201915b5050505050905090565b60606000821415611615576040518060400160405280600181526020017f30000000000000000000000000000000000000000000000000000000000000008152509050611775565b600082905060005b6000821461164757808061163090612b83565b915050600a826116409190612a36565b915061161d565b60008167ffffffffffffffff811115611689577f4e487b7100000000000000000000000000000000000000000000000000000000600052604160045260246000fd5b6040519080825280601f01601f1916602001820160405280156116bb5781602001600182028036833780820191505090505b5090505b6000851461176e576001826116d49190612a67565b9150600a856116e39190612bcc565b60306116ef91906129e0565b60f81b81838151811061172b577f4e487b7100000000000000000000000000000000000000000000000000000000600052603260045260246000fd5b60200101907effffffffffffffffffffffffffffffffffffffffffffffffffffffffffffff1916908160001a905350600a856117679190612a36565b94506116bf565b8093505050505b919050565b505050565b6117898383611971565b61179660008484846117da565b6117d5576040517f08c379a00000000000000000000000000000000000000000000000000000000081526004016117cc906126f1565b60405180910390fd5b505050565b60006117fb8473ffffffffffffffffffffffffffffffffffffffff16611b3f565b15611964578373ffffffffffffffffffffffffffffffffffffffff1663150b7a02611824610fdc565b8786866040518563ffffffff1660e01b81526004016118469493929190612668565b602060405180830381600087803b15801561186057600080fd5b505af192505050801561189157506040513d601f19601f8201168201806040525081019061188e9190611efe565b60015b611914573d80600081146118c1576040519150601f19603f3d011682016040523d82523d6000602084013e6118c6565b606091505b5060008151141561190c576040517f08c379a0000000000000000000000000000000000000000000000000000000008152600401611903906126f1565b60405180910390fd5b805181602001fd5b63150b7a0260e01b7bffffffffffffffffffffffffffffffffffffffffffffffffffffffff1916817bffffffffffffffffffffffffffffffffffffffffffffffffffffffff191614915050611969565b600190505b949350505050565b600073ffffffffffffffffffffffffffffffffffffffff168273ffffffffffffffffffffffffffffffffffffffff1614156119e1576040517f08c379a00000000000000000000000000000000000000000000000000000000081526004016119d890612811565b60405180910390fd5b6119ea81610f70565b15611a2a576040517f08c379a0000000000000000000000000000000000000000000000000000000008152600401611a2190612731565b60405180910390fd5b611a366000838361177a565b6001600360008473ffffffffffffffffffffffffffffffffffffffff1673ffffffffffffffffffffffffffffffffffffffff1681526020019081526020016000206000828254611a8691906129e0565b92505081905550816002600083815260200190815260200160002060006101000a81548173ffffffffffffffffffffffffffffffffffffffff021916908373ffffffffffffffffffffffffffffffffffffffff160217905550808273ffffffffffffffffffffffffffffffffffffffff16600073ffffffffffffffffffffffffffffffffffffffff167fddf252ad1be2c89b69c2b068fc378daa952ba7f163c4a11628f55a4df523b3ef60405160405180910390a45050565b600080823b905060008111915050919050565b828054611b5e90612b51565b90600052602060002090601f016020900481019282611b805760008555611bc7565b82601f10611b9957805160ff1916838001178555611bc7565b82800160010185558215611bc7579182015b82811115611bc6578251825591602001919060010190611bab565b5b509050611bd49190611bd8565b5090565b5b80821115611bf1576000816000905550600101611bd9565b5090565b6000611c08611c038461293d565b61290c565b905082815260208101848484011115611c2057600080fd5b611c2b848285612b0f565b509392505050565b6000611c46611c418461296d565b61290c565b905082815260208101848484011115611c5e57600080fd5b611c69848285612b0f565b509392505050565b600081359050611c8081612cca565b92915050565b600081359050611c9581612ce1565b92915050565b600081359050611caa81612cf8565b92915050565b600081519050611cbf81612cf8565b92915050565b600082601f830112611cd657600080fd5b8135611ce6848260208601611bf5565b91505092915050565b600082601f830112611d0057600080fd5b8135611d10848260208601611c33565b91505092915050565b600081359050611d2881612d0f565b92915050565b600060208284031215611d4057600080fd5b6000611d4e84828501611c71565b91505092915050565b60008060408385031215611d6a57600080fd5b6000611d7885828601611c71565b9250506020611d8985828601611c71565b9150509250929050565b600080600060608486031215611da857600080fd5b6000611db686828701611c71565b9350506020611dc786828701611c71565b9250506040611dd886828701611d19565b9150509250925092565b60008060008060808587031215611df857600080fd5b6000611e0687828801611c71565b9450506020611e1787828801611c71565b9350506040611e2887828801611d19565b925050606085013567ffffffffffffffff811115611e4557600080fd5b611e5187828801611cc5565b91505092959194509250565b60008060408385031215611e7057600080fd5b6000611e7e85828601611c71565b9250506020611e8f85828601611c86565b9150509250929050565b60008060408385031215611eac57600080fd5b6000611eba85828601611c71565b9250506020611ecb85828601611d19565b9150509250929050565b600060208284031215611ee757600080fd5b6000611ef584828501611c9b565b91505092915050565b600060208284031215611f1057600080fd5b6000611f1e84828501611cb0565b91505092915050565b600060208284031215611f3957600080fd5b600082013567ffffffffffffffff811115611f5357600080fd5b611f5f84828501611cef565b91505092915050565b600060208284031215611f7a57600080fd5b6000611f8884828501611d19565b91505092915050565b611f9a81612a9b565b82525050565b611fa981612aad565b82525050565b6000611fba8261299d565b611fc481856129b3565b9350611fd4818560208601612b1e565b611fdd81612cb9565b840191505092915050565b6000611ff3826129a8565b611ffd81856129c4565b935061200d818560208601612b1e565b61201681612cb9565b840191505092915050565b600061202c826129a8565b61203681856129d5565b9350612046818560208601612b1e565b80840191505092915050565b600061205f6032836129c4565b91507f4552433732313a207472616e7366657220746f206e6f6e20455243373231526560008301527f63656976657220696d706c656d656e74657200000000000000000000000000006020830152604082019050919050565b60006120c56026836129c4565b91507f4f776e61626c653a206e6577206f776e657220697320746865207a65726f206160008301527f64647265737300000000000000000000000000000000000000000000000000006020830152604082019050919050565b600061212b601c836129c4565b91507f4552433732313a20746f6b656e20616c7265616479206d696e746564000000006000830152602082019050919050565b600061216b6024836129c4565b91507f4552433732313a207472616e7366657220746f20746865207a65726f2061646460008301527f72657373000000000000000000000000000000000000000000000000000000006020830152604082019050919050565b60006121d16019836129c4565b91507f4552433732313a20617070726f766520746f2063616c6c6572000000000000006000830152602082019050919050565b6000612211602c836129c4565b91507f4552433732313a206f70657261746f7220717565727920666f72206e6f6e657860008301527f697374656e7420746f6b656e00000000000000000000000000000000000000006020830152604082019050919050565b60006122776038836129c4565b91507f4552433732313a20617070726f76652063616c6c6572206973206e6f74206f7760008301527f6e6572206e6f7220617070726f76656420666f7220616c6c00000000000000006020830152604082019050919050565b60006122dd602a836129c4565b91507f4552433732313a2062616c616e636520717565727920666f7220746865207a6560008301527f726f2061646472657373000000000000000000000000000000000000000000006020830152604082019050919050565b60006123436029836129c4565b91507f4552433732313a206f776e657220717565727920666f72206e6f6e657869737460008301527f656e7420746f6b656e00000000000000000000000000000000000000000000006020830152604082019050919050565b60006123a96020836129c4565b91507f4552433732313a206d696e7420746f20746865207a65726f20616464726573736000830152602082019050919050565b60006123e9602c836129c4565b91507f4552433732313a20617070726f76656420717565727920666f72206e6f6e657860008301527f697374656e7420746f6b656e00000000000000000000000000000000000000006020830152604082019050919050565b600061244f6020836129c4565b91507f4f776e61626c653a2063616c6c6572206973206e6f7420746865206f776e65726000830152602082019050919050565b600061248f6029836129c4565b91507f4552433732313a207472616e73666572206f6620746f6b656e2074686174206960008301527f73206e6f74206f776e00000000000000000000000000000000000000000000006020830152604082019050919050565b60006124f5602f836129c4565b91507f4552433732314d657461646174613a2055524920717565727920666f72206e6f60008301527f6e6578697374656e7420746f6b656e00000000000000000000000000000000006020830152604082019050919050565b600061255b6021836129c4565b91507f4552433732313a20617070726f76616c20746f2063757272656e74206f776e6560008301527f72000000000000000000000000000000000000000000000000000000000000006020830152604082019050919050565b60006125c16031836129c4565b91507f4552433732313a207472616e736665722063616c6c6572206973206e6f74206f60008301527f776e6572206e6f7220617070726f7665640000000000000000000000000000006020830152604082019050919050565b61262381612b05565b82525050565b60006126358285612021565b91506126418284612021565b91508190509392505050565b60006020820190506126626000830184611f91565b92915050565b600060808201905061267d6000830187611f91565b61268a6020830186611f91565b612697604083018561261a565b81810360608301526126a98184611faf565b905095945050505050565b60006020820190506126c96000830184611fa0565b92915050565b600060208201905081810360008301526126e98184611fe8565b905092915050565b6000602082019050818103600083015261270a81612052565b9050919050565b6000602082019050818103600083015261272a816120b8565b9050919050565b6000602082019050818103600083015261274a8161211e565b9050919050565b6000602082019050818103600083015261276a8161215e565b9050919050565b6000602082019050818103600083015261278a816121c4565b9050919050565b600060208201905081810360008301526127aa81612204565b9050919050565b600060208201905081810360008301526127ca8161226a565b9050919050565b600060208201905081810360008301526127ea816122d0565b9050919050565b6000602082019050818103600083015261280a81612336565b9050919050565b6000602082019050818103600083015261282a8161239c565b9050919050565b6000602082019050818103600083015261284a816123dc565b9050919050565b6000602082019050818103600083015261286a81612442565b9050919050565b6000602082019050818103600083015261288a81612482565b9050919050565b600060208201905081810360008301526128aa816124e8565b9050919050565b600060208201905081810360008301526128ca8161254e565b9050919050565b600060208201905081810360008301526128ea816125b4565b9050919050565b6000602082019050612906600083018461261a565b92915050565b6000604051905081810181811067ffffffffffffffff8211171561293357612932612c8a565b5b8060405250919050565b600067ffffffffffffffff82111561295857612957612c8a565b5b601f19601f8301169050602081019050919050565b600067ffffffffffffffff82111561298857612987612c8a565b5b601f19601f8301169050602081019050919050565b600081519050919050565b600081519050919050565b600082825260208201905092915050565b600082825260208201905092915050565b600081905092915050565b60006129eb82612b05565b91506129f683612b05565b9250827fffffffffffffffffffffffffffffffffffffffffffffffffffffffffffffffff03821115612a2b57612a2a612bfd565b5b828201905092915050565b6000612a4182612b05565b9150612a4c83612b05565b925082612a5c57612a5b612c2c565b5b828204905092915050565b6000612a7282612b05565b9150612a7d83612b05565b925082821015612a9057612a8f612bfd565b5b828203905092915050565b6000612aa682612ae5565b9050919050565b60008115159050919050565b60007fffffffff0000000000000000000000000000000000000000000000000000000082169050919050565b600073ffffffffffffffffffffffffffffffffffffffff82169050919050565b6000819050919050565b82818337600083830152505050565b60005b83811015612b3c578082015181840152602081019050612b21565b83811115612b4b576000848401525b50505050565b60006002820490506001821680612b6957607f821691505b60208210811415612b7d57612b7c612c5b565b5b50919050565b6000612b8e82612b05565b91507fffffffffffffffffffffffffffffffffffffffffffffffffffffffffffffffff821415612bc157612bc0612bfd565b5b600182019050919050565b6000612bd782612b05565b9150612be283612b05565b925082612bf257612bf1612c2c565b5b828206905092915050565b7f4e487b7100000000000000000000000000000000000000000000000000000000600052601160045260246000fd5b7f4e487b7100000000000000000000000000000000000000000000000000000000600052601260045260246000fd5b7f4e487b7100000000000000000000000000000000000000000000000000000000600052602260045260246000fd5b7f4e487b7100000000000000000000000000000000000000000000000000000000600052604160045260246000fd5b6000601f19601f8301169050919050565b612cd381612a9b565b8114612cde57600080fd5b50565b612cea81612aad565b8114612cf557600080fd5b50565b612d0181612ab9565b8114612d0c57600080fd5b50565b612d1881612b05565b8114612d2357600080fd5b5056fea264697066735822122037e1ab1bcde4bf295b1c1bb7442fbd0fd9bc8e71ae2710a296d617a8038b8ea264736f6c63430008000033",
  "immutableReferences": {},
  "source": "// SPDX-License-Identifier: MIT\npragma solidity >=0.4.22 <0.9.0;\n\nimport \"@openzeppelin/contracts/token/ERC721/ERC721.sol\";\nimport \"@openzeppelin/contracts/access/Ownable.sol\";\nimport \"@openzeppelin/contracts/utils/Counters.sol\";\n\ncontract TestNFTToken is ERC721, Ownable {\n    using Counters for Counters.Counter;\n\n    string private baseURL;\n\n    Counters.Counter private _tokenIdCounter;\n\n    constructor() ERC721(\"Test NFT Token\", \"TNT\") {}\n\n    function _baseURI() internal view override returns (string memory) {\n        return baseURL;\n    }\n\n    function setBaseURI(string memory newURI) public onlyOwner {\n        baseURL = newURI;\n    }\n\n    function safeMint(address to) public onlyOwner {\n        _safeMint(to, _tokenIdCounter.current());\n        _tokenIdCounter.increment();\n    }\n}\n",
  "sourcePath": "/home/yash/Development/arsyan_work/bidding/smart_contract/contracts/TestNFTToken.sol",
  "compiler": {
    "name": "solc",
    "version": "0.8.0+commit.c7dfd78e.Emscripten.clang"
  },
  "schemaVersion": "3.4.1",
  "updatedAt": "2021-09-09T18:38:56.610Z",
  "networkType": "ethereum",
  "devdoc": {
    "kind": "dev",
    "methods": {
      "approve(address,uint256)": {
        "details": "See {IERC721-approve}."
      },
      "balanceOf(address)": {
        "details": "See {IERC721-balanceOf}."
      },
      "getApproved(uint256)": {
        "details": "See {IERC721-getApproved}."
      },
      "isApprovedForAll(address,address)": {
        "details": "See {IERC721-isApprovedForAll}."
      },
      "name()": {
        "details": "See {IERC721Metadata-name}."
      },
      "owner()": {
        "details": "Returns the address of the current owner."
      },
      "ownerOf(uint256)": {
        "details": "See {IERC721-ownerOf}."
      },
      "renounceOwnership()": {
        "details": "Leaves the contract without owner. It will not be possible to call `onlyOwner` functions anymore. Can only be called by the current owner. NOTE: Renouncing ownership will leave the contract without an owner, thereby removing any functionality that is only available to the owner."
      },
      "safeTransferFrom(address,address,uint256)": {
        "details": "See {IERC721-safeTransferFrom}."
      },
      "safeTransferFrom(address,address,uint256,bytes)": {
        "details": "See {IERC721-safeTransferFrom}."
      },
      "setApprovalForAll(address,bool)": {
        "details": "See {IERC721-setApprovalForAll}."
      },
      "supportsInterface(bytes4)": {
        "details": "See {IERC165-supportsInterface}."
      },
      "symbol()": {
        "details": "See {IERC721Metadata-symbol}."
      },
      "tokenURI(uint256)": {
        "details": "See {IERC721Metadata-tokenURI}."
      },
      "transferFrom(address,address,uint256)": {
        "details": "See {IERC721-transferFrom}."
      },
      "transferOwnership(address)": {
        "details": "Transfers ownership of the contract to a new account (`newOwner`). Can only be called by the current owner."
      }
    },
    "version": 1
  },
  "userdoc": {
    "kind": "user",
    "methods": {},
    "version": 1
  }
}