{
  "contractName": "WETH",
  "abi": [
    {
      "inputs": [],
      "name": "deposit",
      "outputs": [],
      "stateMutability": "payable",
      "type": "function",
      "payable": true
    },
    {
      "inputs": [
        {
          "internalType": "uint256",
          "name": "wad",
          "type": "uint256"
        }
      ],
      "name": "withdraw",
      "outputs": [],
      "stateMutability": "nonpayable",
      "type": "function"
    },
    {
      "inputs": [
        {
          "internalType": "address",
          "name": "to",
          "type": "address"
        },
        {
          "internalType": "uint256",
          "name": "value",
          "type": "uint256"
        }
      ],
      "name": "transfer",
      "outputs": [
        {
          "internalType": "bool",
          "name": "",
          "type": "bool"
        }
      ],
      "stateMutability": "nonpayable",
      "type": "function"
    }
  ],
  "bytecode": "0x608060405234801561001057600080fd5b50610591806100206000396000f3fe6080604052600436106100345760003560e01c80632e1a7d4d14610039578063a9059cbb14610062578063d0e30db01461009f575b600080fd5b34801561004557600080fd5b50610060600480360381019061005b9190610368565b6100a9565b005b34801561006e57600080fd5b506100896004803603810190610084919061032c565b610174565b60405161009691906103e0565b60405180910390f35b6100a76102ab565b005b806000803373ffffffffffffffffffffffffffffffffffffffff1673ffffffffffffffffffffffffffffffffffffffff16815260200190815260200160002054101561012a576040517f08c379a0000000000000000000000000000000000000000000000000000000008152600401610121906103fb565b60405180910390fd5b3373ffffffffffffffffffffffffffffffffffffffff166108fc829081150290604051600060405180830381858888f19350505050158015610170573d6000803e3d6000fd5b5050565b6000816000803373ffffffffffffffffffffffffffffffffffffffff1673ffffffffffffffffffffffffffffffffffffffff1681526020019081526020016000205410156101f7576040517f08c379a00000000000000000000000000000000000000000000000000000000081526004016101ee906103fb565b60405180910390fd5b816000803373ffffffffffffffffffffffffffffffffffffffff1673ffffffffffffffffffffffffffffffffffffffff16815260200190815260200160002060008282546102459190610482565b92505081905550816000808573ffffffffffffffffffffffffffffffffffffffff1673ffffffffffffffffffffffffffffffffffffffff168152602001908152602001600020600082825461029a919061042c565b925050819055506001905092915050565b346000803373ffffffffffffffffffffffffffffffffffffffff1673ffffffffffffffffffffffffffffffffffffffff16815260200190815260200160002060008282546102f9919061042c565b92505081905550565b6000813590506103118161052d565b92915050565b60008135905061032681610544565b92915050565b6000806040838503121561033f57600080fd5b600061034d85828601610302565b925050602061035e85828601610317565b9150509250929050565b60006020828403121561037a57600080fd5b600061038884828501610317565b91505092915050565b61039a816104c8565b82525050565b60006103ad60148361041b565b91507f496e73756666696369656e742042616c616e63650000000000000000000000006000830152602082019050919050565b60006020820190506103f56000830184610391565b92915050565b60006020820190508181036000830152610414816103a0565b9050919050565b600082825260208201905092915050565b6000610437826104f4565b9150610442836104f4565b9250827fffffffffffffffffffffffffffffffffffffffffffffffffffffffffffffffff03821115610477576104766104fe565b5b828201905092915050565b600061048d826104f4565b9150610498836104f4565b9250828210156104ab576104aa6104fe565b5b828203905092915050565b60006104c1826104d4565b9050919050565b60008115159050919050565b600073ffffffffffffffffffffffffffffffffffffffff82169050919050565b6000819050919050565b7f4e487b7100000000000000000000000000000000000000000000000000000000600052601160045260246000fd5b610536816104b6565b811461054157600080fd5b50565b61054d816104f4565b811461055857600080fd5b5056fea2646970667358221220739f9693d6d5ef0358046bb6fb18b027fd2b604018c35d8f1b8f197e75785d4664736f6c63430008000033",
  "immutableReferences": {},
  "source": "// SPDX-License-Identifier: GPL-3.0\npragma solidity >=0.4.22 <0.9.0;\n\nimport \"./interfaces/IWETH.sol\";\n\ncontract WETH {\n    mapping(address => uint256) _balances;\n\n    function deposit() external payable {\n        _balances[msg.sender] += msg.value;\n    }\n\n    function withdraw(uint256 wad) external {\n        require(_balances[msg.sender] >= wad, \"Insufficient Balance\");\n        payable(msg.sender).transfer(wad);\n    }\n\n    function transfer(address to, uint256 value) external returns (bool) {\n        require(_balances[msg.sender] >= value, \"Insufficient Balance\");\n        _balances[msg.sender] -= value;\n        _balances[to] += value;\n        return true;\n    }\n}\n",
  "sourcePath": "/home/yash/Development/arsyan_work/bidding/contracts/WETH.sol",
  "compiler": {
    "name": "solc",
    "version": "0.8.0+commit.c7dfd78e.Emscripten.clang"
  },
  "schemaVersion": "3.4.1",
  "updatedAt": "2021-09-09T18:38:56.621Z",
  "networkType": "ethereum",
  "devdoc": {
    "kind": "dev",
    "methods": {},
    "version": 1
  },
  "userdoc": {
    "kind": "user",
    "methods": {},
    "version": 1
  }
}